:020000041000EA
:1000000000B5324B212058609868022188439860DF
:10001000D860186158612E4B002199600221596106
:100020000121F02299502B49196001219960352056
:1000300000F044F80222904214D00621196600F024
:1000400034F8196E01211966002018661A6600F04E
:100050002CF8196E196E196E052000F02FF8012189
:100060000842F9D1002199601B49196000215960AB
:100070001A491B48016001219960EB211966A021F2
:10008000196600F012F800219960164914480160C1
:100090000121996001BC002800D000471248134993
:1000A000086003C880F30888084703B5996A0420EC
:1000B0000142FBD001200142F8D103BD02B5186610
:1000C0001866FFF7F2FF186E186E02BD00000240BE
:1000D000000000180000070000035F00212200005C
:1000E000F4000018222000A00001001008ED00E03C
:1000F00000000000000000000000000074B24E7A12
:1001000000200420F7010010C3010010C5010010F9
:10011000C1010010C1010010C1010010C101001097
:10012000C1010010C1010010C1010010C701001081
:10013000C1010010C1010010C9010010CB01001065
:10014000CD010010CD010010CD010010CD01001037
:10015000CD010010CD010010CD010010CD01001027
:10016000CD010010CD010010CD010010CD01001017
:10017000CD010010CD010010CD010010CD01001007
:10018000CD010010CD010010CD010010CD010010F7
:10019000CD010010CD010010CD010010CD010010E7
:1001A000CD010010CD010010CD010010CD010010D7
:1001B000CD010010CD010010CD010010CD010010C7
:1001C00000BE00BE00BE00BE00BE00BEEFF3058054
:1001D000103800BEF2EB887134960D1054960D1055
:1001E0003402001090A31AE700201F49086006C8D7
:1001F00081F3088810471D48006800282FD10DA4FE
:100200000ECC002902D000F012F8F9E71849194A7B
:10021000002000E001C19142FCD1174988471749ED
:1002200088471749884700BEFDE701C901C29A42C5
:10023000FBD3704754960D10C0000020D816002044
:100240006CAC0D1000000420000004206CAC0D10FC
:10025000001004200010042000000000704709482E
:1002600008F04EF90047000008ED00E0000000D063
:10027000F816002038300020D16B00100903001060
:10028000256D00105756000006005250ABB3605366
:10029000C0D8071006005250861C0302D0D80710A1
:1002A000060052505422A29DDCD80710050052507F
:1002B000DE65F4686CAC0D10F8B5C0460648074919
:1002C000091A8B10C90FC91810B5491003D0044B77
:1002D000002B00D0984710BDD8160020D81600205B
:1002E00000000000054B10B5002B03D00449054861
:1002F00000E000BFFFF7E2FF10BDC04600000000B5
:10030000B02E0020E8C2071010B501210A2000F02D
:1003100025F8052006F09CFB084908F04BF9084B2E
:100320000100180008F000FF002004F073FB040037
:100330000448210008F0F8FE200010BD40420F00E4
:10034000E8C2071000C307100023034A1900026027
:10035000436010007047C04600B47E6370B505006E
:10036000002914D10024002D10DD012100200BF004
:100370006DF8FA2005F068FE002100200BF066F809
:100380000134FA2005F060FEA542EED170BD08F000
:10039000D7FE0A480BF052F80028E3D001210020D4
:1003A0000BF054F8192005F04FFE002100200BF04F
:1003B0004DF8192005F048FEF0E7C0464A5000000D
:1003C000F0B5DE4657464E46454691468022E0B59A
:1003D000DFB0520083468A461EA80021984608F0E6
:1003E000DDFC00211AA87BF051FD1A981B9908F03A
:1003F000E9FB04001C980D0008F0A0FB0022584BFC
:1004000008F01DFB02000B002000290008F012FB81
:10041000689A699B08F009FB434606000F00002B11
:1004200000DC88E0404608F089FB02000B00040075
:100430000D003000390008F002FB0022494B08F0A3
:1004400018FB16901791002200233000390008F0A5
:100450005DFB00286CD02000290032003B0008F032
:10046000EEFA04000D00404B1B681993012B27D1B5
:100470003E4E3368002B65D01698179903230693D8
:1004800003933B4B0490059102934B4680210193CB
:100490005346384A009349005B46089409951EA8C4
:1004A00007F0E4FF34481EA908F03EFE6A9B002BCB
:1004B00034DB5FB0F0BCBB46B246A946A046F0BDF7
:1004C0002E4B0520D96812941395169C179D1491F4
:1004D00003210E940F9510910D910C909C68284A61
:1004E0000B945C6808960997079106900A941B681C
:1004F000FD310593434604931D4B1EA803930293BD
:100500004B460193534600935B4607F0AFFF1A48F2
:100510001EA908F009FE6A9B002BCADA0193534614
:100520005A46009317494B46174808F0FDFDC0E7AF
:100530000024002597E70024002500231694179532
:10054000984680E7114B12481F00190008F0ECFD97
:100550003900104808F0E8FD199B33608CE7C0466D
:1005600080842E4100408F4018210020BC1F0020B5
:1005700024C3071058C30710ACC30710980F0020FE
:1005800070C30710ECD50710B0C30710F0D50710E3
:100590000CC3071028C30710F0B5DE4657464E4679
:1005A0004546E0B58146C1B00800924608F0C6FA5B
:1005B0001AAB96221490159100211800984608F065
:1005C000EDFB16AB180000217BF060FC1698179924
:1005D00008F0F8FA040018980D0008F0AFFA0022AD
:1005E000734B08F02CFA02000B002000290008F0E1
:1005F00021FA4A9A4B9B08F018FA060050460F0061
:1006000008F098FA149A159B08F033FA694B040025
:100610009B461B680D009A46012B00D1AEE0664B4D
:1006200000221B68002B27D020002900634B08F014
:100630006DFA0022002800D18BE020002900604BD9
:1006400008F017FA5F4B04000D009B4600220023C0
:100650003000390008F05AFA002826D1534600200D
:100660000021012B2ED1009001914B46962140464E
:10067000554A07F0FBFE46E0200029004C4B08F0ED
:1006800045FA0022002852D020002900484B08F0EB
:10069000D6F94E4B04000D009B460022002330008B
:1006A000390008F033FA0028D8D032003B0000208F
:1006B000474908F0C4F92B00220008F0DAF9534644
:1006C000012BD0D05B461090119108211293032387
:1006D0000D9140490E9348680A960B97099302338F
:1006E0000C900893096801930791594606910021DF
:1006F000394B0291009340464B4604940595374A86
:10070000963107F0B3FE40467BF0CCFB0A2342460D
:1007100041461354324808F007FD4C9B002B40DB48
:1007200041B0F0BCBB46B246A946A046F0BD200091
:1007300029002C4B08F0EAF900281CD020002900E1
:10074000284B002208F07BF9274B04000D009B4644
:10075000A3E720002900254B08F0D8F900280AD08B
:1007600020002900224B002208F083F9214B0400CD
:100770000D009B4691E7204B9B468EE71F4B149341
:100780001B68002B00D04AE71D4808F0DBFB1D4822
:1007900008F0D8FB5246149B1A605B461B689A46C9
:1007A0003DE74A461849194808F0BEFCB8E7C0467C
:1007B00080842E4118210020840F00200000304149
:1007C0000000B03ED4C3071018C40710E4C30710DC
:1007D0000000F03F3810002024C3071020C4071089
:1007E000ACC3071000408F40E8C3071000009040E2
:1007F0000000503FE0C30710D8C3071000300020AE
:10080000ECC3071004C40710ECD507104CC4071044
:10081000F0B5DE464E4645465746E0B51500C022C7
:100820004C4C9200A54418A80C0000211E0008F0B2
:10083000B5FA02220021524218A838F02FFC0028F5
:1008400000D07FE02A003300210018A838F06AFCAD
:10085000021E0FD04048E29908F066FC18A838F054
:100860002FFCD9239B009D44F0BCBB46B246A94651
:10087000A046F0BD002108A87BF008FB0898099964
:1008800008F0A0F904000A980D0008F057F90022BA
:10089000324B08F0D4F80B0002002900200008F0C9
:1008A000C9F800239B462E4B04009A462D4B0D00A1
:1008B000994653461B68002B1BDD00262A4F4B46EA
:1008C00039681A6818A838F06BFA804600280ADAE6
:1008D0004B461A684346594600940195E2980293A4
:1008E000FFF75AFEBAE753461B6801369E42E6DB25
:1008F000B34408A918A838F0ABFA80460028E7DB13
:10090000002104A87BF0C2FA0498059908F05AF96E
:10091000060006980F0008F011F900220F4B08F0AE
:100920008EF802000B003000390008F083F8220036
:100930002B0008F07AF800220C4B08F0D9F80028B8
:10094000B7D1C5E70A4B0200E299180008F0ECFBAA
:1009500084E7C0469CFCFFFF90C4071080842E41B2
:100960008C0F0020880F0020FC1F00200000F03FAB
:1009700068C40710F0B54E46DE46454657469046D9
:10098000CE22E0B58C4C9200A5440E000EA80021AA
:10099000994608F003FA0222002152420EA816F0EE
:1009A00033FA002800D001E1310000904B46424666
:1009B0000EA811F06DFF011E0ED0804808F0B4FBA8
:1009C0000EA816F02BFADD239B009D44F0BCBB461D
:1009D000B246A946A046F0BD00210AA87BF056FA0F
:1009E0000A980B9908F0EEF804000C980D0008F036
:1009F000A5F80022724B08F022F80B000200290033
:100A0000200008F017F800236E4C05936E4B00256C
:100A10009B46A2460690079108965B461B68002BF2
:100A200022DD0026694C6A4F534622681B683968EC
:100A30000EA811F04FFF00280BDA544605992268E2
:100A40000290069B079CE69800930194FFF7A4FD93
:100A5000B6E75B461B680136B342E5DC059B050043
:100A60009C46B4446346059300210AA87BF00EFA25
:100A70000A980B9908F0A6F806000C980F0008F0E9
:100A80005DF800224E4B07F0DAFF02000B00300049
:100A9000390007F0CFFF069A079B07F0C6FF002238
:100AA0004C4B08F025F80028B7D154460698079912
:100AB00022680090019102950599E698089EFFF73B
:100AC0006BFD01233100009342464B460EA811F006
:100AD000DFFE011E00D070E700210AA87BF0D6F9E6
:100AE0000A980B9908F06EF806000C980F0008F0B1
:100AF00025F80022324B07F0A2FF0B00020039005C
:100B0000300007F097FF0F000600002306960797B6
:100B100000255F46A04605933B68002B24DD2B4B48
:100B200000249A462A4B994643464A4651461B683A
:100B3000126809680EA811F0F3FF051E0BDA069E75
:100B4000079F444605992268E79800960197029509
:100B5000FFF722FD34E73B680134A342E4DC059B48
:100B60009C46A4446346059300210AA87BF08EF9B5
:100B70000A980B9908F026F8089009910C9807F04C
:100B8000DDFF00220E4B07F05AFF02000B00089811
:100B9000099907F04FFF069A079B07F046FF0022CE
:100BA0000C4B07F0A5FF0028B6D1C8E70A4B01009F
:100BB000180008F0B9FA03E78CFCFFFFD4C4071053
:100BC00080842E41880F00208C0F0020E01F002021
:100BD000FC1F00200000F03FB8C40710F0B5DE464F
:100BE00057464E464546E0B5C84C8946A5440121C6
:100BF0000D209246099308F0B3F8012108900400F3
:100C0000102008F0ADF80790002C00D16FE100280B
:100C100000D15FE1CE220021920014A808F0BEF8B6
:100C200002220021524214A816F0EEF8041E00D051
:100C300045E15246494614A814F076FF041E1BD025
:100C40002100B34808F070FAE2AD002C00DA87E02A
:100C5000280016F0E3F814A816F0E0F8089808F059
:100C600091F8079808F08EF8AA4B9D44F0BCBB465B
:100C7000B246A946A046F0BDE2AD002128007BF0B7
:100C800005F9E298E39907F09DFF0600E4980F004C
:100C900007F054FF0022A04B07F0D1FE0B0002002A
:100CA0003900300007F0C6FE00230C939B4B9C4F8D
:100CB000984653460024AB46BA460E900F910A93CD
:100CC00053461B68002B5ADD0023964D964E2C0090
:100CD0001D00964F434620681B68326839680590AE
:100CE0000898049010200390079802900C2001901F
:100CF0000998009014A814F057FF002835DA040072
:100D00000A9B57469A4643460AA884461A680294A4
:100D10000E9B0F9C00930194854B0C9963441868BB
:100D2000FFF73AFC5D46CE220021D200280008F0F1
:100D300035F8022200212800524216F065F8041E00
:100D400000D0C2E052464946280014F0EDFE061ECF
:100D50003AD031006E4808F0E7F9341E00DB77E73F
:100D60002100744808F0E0F972E753461B6801352A
:100D70009D42AFDBAC4604000C9B63440C93002106
:100D800058467BF083F85B461868596807F01AFFED
:100D90005B46060098680F0007F0D0FE00225E4B0D
:100DA00007F04DFE02000B003000390007F042FE54
:100DB0000E9A0F9B07F039FE00225F4B07F098FE5A
:100DC000002800D07CE79BE7002110A87BF05EF8AC
:100DD0001098119907F0F6FE0A900B91129807F0FF
:100DE000ADFE00224C4B07F02AFE0B0002000A98D1
:100DF0000B9907F01FFE0023BA460C900D910A9341
:100E000053461B68002B38DD484D464F464B3C008F
:100E100000262F001D00434620681B683A68296899
:100E200005900898049010200390079802900C20D9
:100E3000019009980090584615F00EFA002811DA32
:100E400004000C980D9943461A68009001910AA875
:100E50008446304B029463440A9918685D46FFF754
:100E60009BFBF2E653461B6801369E42D3DB0A9B8E
:100E700004009C46B44463460A93002110A87BF00A
:100E800005F81098119907F09DFE060012980F00C2
:100E900007F054FE0022204B07F0D1FD02000B00AA
:100EA0003000390007F0C6FD0C9A0D9B07F0BDFD20
:100EB0000022214B07F01CFE0028A1D1C1E7210030
:100EC0001E4808F031F9E2ADBFE621001B4808F0EA
:100ED0002BF9BAE61A4808F035F8E2A815F09EFF9B
:100EE00014A815F09BFF089807F04CFFBCE61448C7
:100EF00008F028F8E2A815F091FF14A815F08EFF6D
:100F0000079B002B00D0ACE6AEE6C04604F6FFFF20
:100F100014C50710FC09000080842E41880F0020B2
:100F20008C0F0020940F0020FC1F0020E01F0020E9
:100F3000F809000034C507100000F03FB8C40710DE
:100F4000F0C40710F0B5DE46454657464E4602222D
:100F5000E0B591B0002152420CA83AF0C7FD051E41
:100F600000DA8AE0002108A87AF090FF0898099931
:100F700007F028FE06000A980F0007F0DFFD0022A8
:100F8000474B07F05CFD0B0002003900300007F012
:100F900051FD444B00249B46434B26009A46434B4D
:100FA00006900791994680235B0298465B461A6833
:100FB000002A3FDD002304934B462800B1461E0063
:100FC00053461C68002C5DDD002503E0E41BED1991
:100FD000002C23DD2700444501DD80277F02316896
:100FE0003A0049190CA83AF0ABFA0028EEDA0500ED
:100FF0004C4653462E481A6821000295069D079ECE
:1010000000950196FFF7C8FA0CA83AF083F911B0E1
:10101000F0BCBB46B246A946A046F0BD5B461A6886
:10102000049B013304939A42CADC320005004E4609
:101030009146F618002108A87AF028FF0898099927
:1010400007F0C0FD049005910A9807F077FD002293
:10105000134B07F0F4FC02000B000498059907F00D
:10106000E9FC069A079B07F0E0FC0022114B07F011
:101070003FFD00289AD13400BBE729000E4808F054
:1010800053F8C4E73100049B4E46013305008946FE
:101090009A42CEDD01339A42FCDCF618CAE7C0461C
:1010A00080842E418C0F0020880F0020FC1F002020
:1010B00020C607100000F03F0CC60710F0B5234D06
:1010C000234F244E2A6804003968336883B0002A0D
:1010D00004D00D2A30D0204A204801E0204A21487F
:1010E0000190009220001022FFF778FD2A683968ED
:1010F0003368002A04D00D2A21D01B4A1B4801E086
:101100001B4A1C480190009220001822FFF766FD40
:101110002A6839683368002A04D00D2A12D0164A8A
:10112000164801E0164A174801900092200020223C
:10113000FFF754FD03B0F0BD134A1448D0E7144A3A
:101140001448DFE7144A1548EEE7C046940F002024
:10115000F01F0020EC1F002084C607109CC607105B
:10116000B4C60710CCC6071004C707101CC7071069
:1011700034C707104CC7071084C707109CC7071057
:10118000B4C70710CCC70710E4C60710F4C6071091
:1011900064C7071074C70710E4C70710F4C7071027
:1011A000474BF0B545469846DE4657464E46454BBA
:1011B000E0B5186899464346434C1A68A544002197
:1011C0000CAC07F0EBFD10220021200007F0E6FD3B
:1011D000CE220021920010A807F0E0FD022200219B
:1011E000524210A815F010FE384B1022196810A8B2
:1011F00015F08AFC002108A87AF048FE08980999A1
:1012000007F0E0FC06000A980F0007F097FC0022A8
:101210002F4B07F014FC0B0002003900300007F0E0
:1012200009FC2C4B00259A46102346469B46574600
:10123000069007915A464B4639681B680292019402
:10124000326810A800920C2215F092FC0021804612
:1012500008A87AF01BFE0898099907F0B3FC0490DF
:1012600005910A9807F06AFC0022194B07F0E7FB8A
:1012700002000B000498059907F0DCFB069A079B17
:1012800007F0D3FB0022144B013507F031FC002896
:10129000D0D1444610A815F0C1FD3268290002944F
:1012A0000E48069B079C00930194FFF775F9DF2316
:1012B0009B009D44F0BCBB46B246A946A046F0BD8B
:1012C000880F0020FC1F002084FCFFFFF01F00207F
:1012D00080842E41EC1F00200000F03F04C807105E
:1012E000F0B5DE4657464E464546E0B58A4BA5B0BA
:1012F0001B68002B00D17BE0884B10AD19682022C1
:10130000280038F01FFD011E00D001E100210CA8CB
:101310007AF0BCFD0C980D9907F054FC06000E986D
:101320000F0007F00BFC00227D4B07F088FB0B0041
:1013300002003900300007F07DFB00239B46794B0B
:10134000794F9846794BB94600249A46474606900D
:1013500007913B68002B1ADDB84600264C465746DD
:1013600005E043461B680136B34200DCC5E02800B7
:101370002268396838F06EFE0028F2D0A1460400D9
:101380006B482100BA4607F0CFFE4746B3440CA98C
:10139000280038F065FD002108A87AF077FD08984C
:1013A000099907F00FFC049005910A9807F0C6FB15
:1013B00000225B4B07F043FB02000B0004980599E9
:1013C00007F038FB069A079B07F02FFB0022594BCA
:1013D00007F08EFB0028BCD14F4659463A68564864
:1013E0000294069B079C00930194FFF7D5F848E010
:1013F00010AD002128007AF049FD1098119907F0EE
:10140000E1FB0600A8680F0007F098FB0022444BA0
:1014100007F015FB0B0002003900300007F00AFB53
:1014200000239B463F4B002498463F4B0490059178
:101430009A463E4B994643461B68002B30DD0026FA
:101440005446364F11E04B4628002268196838F0A0
:1014500001FE824600281BD128000CA938F000FDAF
:1014600043461B680136B3424DDD2022280039680F
:1014700038F068FC0028E6D0304B0100180007F077
:1014800053FE25B0F0BCBB46B246A946A046F0BD0F
:1014900023000400264821009A4607F045FEB34485
:1014A000002108A87AF0F2FC0898099907F08AFB55
:1014B00006000A980F0007F041FB0022184B07F0C6
:1014C000BEFA02000B003000390007F0B3FA049AAC
:1014D000059B07F0AAFA0022164B07F009FB00282B
:1014E000A9D1114B59461A6813480294049B059CD4
:1014F00000930194FFF750F8C3E7A146BA460400F1
:101500004746B34443E72300B34454469A46C7E7EB
:101510000A4807F009FEB4E7800F0020F01F002002
:1015200080842E418C0F0020880F0020FC1F00209B
:101530003CC807100000F03F58C8071018C8071033
:10154000F0B5D6464F464646C0B53C4B9CB01968F0
:1015500010220BA820F094F8002106A87AF096FC3F
:101560000698079907F02EFB040008980D0007F075
:10157000E5FA0022324B07F062FA0B000200290064
:10158000200007F057FA00239A462E4B049005914D
:1015900098462D4B2D4D99462B68002B1ADD2B00BC
:1015A0002B4E00243500464698462A4F4B460022D3
:1015B00019680BA820F048F833683A6829680BA826
:1015C00020F0BCF843461B680134A342EEDC4546DC
:1015D000B046A244002106A87AF058FC0698079964
:1015E00007F0F0FA060008980F0007F0A7FA0022AB
:1015F000134B07F024FA02000B003000390007F00B
:1016000019FA049A059B07F010FA0022124B07F012
:101610006FFA0028C0D143461A68104B0290049814
:1016200005990090019151461800FEF7B5FF1CB0D6
:10163000E0BCBA46B146A846F0BDC046F01F002047
:1016400080842E41880F0020EC1F00208C0F00208A
:10165000E01F0020FC1F00200000F03F64C80710BE
:10166000F0B5DE46454657464E46E0B591B01022ED
:1016700000210CA807F092FB002108A87AF006FCD4
:101680000898099907F09EFA04000A980D0007F0DF
:1016900055FA00223B4B07F0D2F90B00020029005B
:1016A000200007F0C7F900230593374B0024984624
:1016B000364B069007919946354B9A4643461B6830
:1016C000002B29DD334F344B4C460025B946334EB1
:1016D0001F0004E043461B680135AB424FDD534613
:1016E00019680CAB386803934B461B6800220293C1
:1016F0002368019333680093002320F0B3F9002896
:10170000E8DAA14604002648210007F00DFD059BFC
:101710009C46AC4463460593002108A87AF0B6FBCA
:101720000898099907F04EFA06000A980F0007F08A
:1017300005FA0022134B07F082F902000B0030007B
:10174000390007F077F9069A079B07F06EF9002237
:10175000144B07F0CDF90028B0D14B4612481A6857
:1017600005990294069B079C00930194FEF714FFD1
:1017700011B0F0BCBB46B246A946A046F0BDA1469A
:101780000400C4E780842E418C0F0020880F0020C5
:10179000EC1F0020E01F0020F01F0020FC1F002095
:1017A0006CC807100000F03F94C80710F0B5DE4683
:1017B00057464E464546E0B51420A7B007F0BEFA9E
:1017C0006422040000210DA807F0E8FA814B1B6891
:1017D000002B00D18AE00222002152420DA840F0E5
:1017E0000BFC011E11D07C4807F09EFC0DA840F0B8
:1017F00023FE002C02D0200007F0C4FA27B0F0BC72
:10180000BB46B246A946A046F0BD08AB99461800B3
:101810007AF03CFB0898099907F0D4F94B4606008A
:1018200098680F0007F08AF900226C4B07F007F95F
:101830000B0002003900300007F0FCF800239A4644
:10184000674B049005911E00664D3368002B23DD25
:1018500000239846644B9B463300464698465B46B9
:101860002A6819680DA840F0E7FB00280BDA07008A
:101870002A685146049D059E5C4800950196029792
:10188000FEF78AFEB2E743461B680136B342E6DC48
:101890004346B0461E00C24421000DA840F0CEFCD5
:1018A000071EE5DB002148467AF0F0FA4B4618683F
:1018B000596807F087F94B4606900791986807F03A
:1018C0003DF90022454B07F0BAF802000B000698DC
:1018D000079907F0AFF8049A059B07F0A6F80022D5
:1018E000434B07F005F90028AFD1C1E708AB994693
:1018F000180000217AF0CAFA0898099907F062F9ED
:101900004B46060098680F0007F018F90022334B89
:1019100007F095F80B0002003900300007F08AF854
:1019200000239A462E4B2F4D98462F4B2F009B4657
:1019300046462500049005913368002B23DDB04610
:1019400000245E4611E03A6831680DA840F074FB4F
:10195000002812D129000DA840F070FC00280CD1FD
:1019600043461B6801349C420ADA0222002152429B
:101970000DA840F041FB0028E5D02C003D0076E7A3
:10198000B3464646A244002148467AF07FFA4B46C9
:101990001868596807F016F94B4606900791986841
:1019A00007F0CCF800220D4B07F049F802000B00BD
:1019B0000698079907F03EF8049A059B07F035F85A
:1019C00000220B4B07F094F80028B5D12C003D0005
:1019D00000274DE7800F0020A0C8071080842E410B
:1019E0008C0F0020880F0020FC1F0020BCC80710AF
:1019F0000000F03FF0B5DE4657464E464546E0B59E
:101A00002020A9B007F09AF97022040000210CA848
:101A100007F0C4F9814B1B68002B00D18AE0022239
:101A2000002152420CA841F043F8011E11D07C481D
:101A300007F07AFB0CA841F079FA002C02D02000C4
:101A400007F0A0F929B0F0BCBB46B246A946A046B3
:101A5000F0BD08AB994618007AF018FA0898099971
:101A600007F0B0F84B46060098680F0007F066F8DC
:101A700000226C4B06F0E3FF0B000200390030003F
:101A800006F0D8FF00239A46674B049005911E008C
:101A9000664D3368002B23DD00239846644B9B463C
:101AA0003300464698465B462A6819680CA841F000
:101AB0002BF800280BDA07002A685146049D059E82
:101AC0005C48009501960297FEF766FDB2E7434633
:101AD0001B680136B342E6DC4346B0461E00C244F2
:101AE00021000CA841F004F9071EE5DB002148465F
:101AF0007AF0CCF94B461868596807F063F84B4602
:101B000006900791986807F019F80022454B06F0F7
:101B100096FF02000B000698079906F08BFF049AC7
:101B2000059B06F082FF0022434B06F0E1FF0028F0
:101B3000AFD1C1E708AB9946180000217AF0A6F9A9
:101B40000898099907F03EF84B46060098680F0080
:101B500006F0F4FF0022334B06F071FF0B00020089
:101B60003900300006F066FF00239A462E4B2F4DB9
:101B700098462F4B2F009B46464625000490059122
:101B80003368002B23DDB04600245E4611E03A683E
:101B900031680CA840F0B8FF002812D129000CA829
:101BA00041F0A6F800280CD143461B6801349C4242
:101BB0000ADA0222002152420CA840F079FF0028E4
:101BC000E5D02C003D0076E7B3464646A24400210E
:101BD00048467AF05BF94B461868596806F0F2FF00
:101BE0004B4606900791986806F0A8FF00220D4B1F
:101BF00006F025FF02000B000698079906F01AFF71
:101C0000049A059B06F011FF00220B4B06F070FFB3
:101C10000028B5D12C003D0000274DE7800F0020A3
:101C2000C0C8071080842E418C0F0020880F002030
:101C3000FC1F0020E0C807100000F03FF0B5DE46B2
:101C400057464E464546E0B53020C5B007F076F819
:101C5000E022040000210CA807F0A0F8814B1B68CB
:101C6000002B00D18AE00222002152420CA847F04A
:101C7000CFF8011E11D07C4807F056FA0CA847F0A7
:101C800073F9002C02D0200007F07CF845B0F0BCBE
:101C9000BB46B246A946A046F0BD08AB994618001F
:101CA0007AF0F4F80898099906F08CFF4B46060084
:101CB00098680F0006F042FF00226C4B06F0BFFE52
:101CC0000B0002003900300006F0B4FE00239A46F3
:101CD000674B049005911E00664D3368002B23DD91
:101CE00000239846644B9B463300464698465B4625
:101CF0002A6819680CA846F059FE00280BDA07007C
:101D00002A685146049D059E5C48009501960297FD
:101D1000FEF742FCB2E743461B680136B342E6DCFD
:101D20004346B0461E00C24421000CA846F078FE8F
:101D3000071EE5DB002148467AF0A8F84B461868F4
:101D4000596806F03FFF4B4606900791986806F0E9
:101D5000F5FE0022454B06F072FE02000B000698CD
:101D6000079906F067FE049A059B06F05EFE0022C6
:101D7000434B06F0BDFE0028AFD1C1E708AB994642
:101D8000180000217AF082F80898099906F01AFFE5
:101D90004B46060098680F0006F0D0FE0022334B39
:101DA00006F04DFE0B0002003900300006F042FE46
:101DB00000239A462E4B2F4D98462F4B2F009B46C3
:101DC00046462500049005913368002B23DDB0467C
:101DD00000245E4611E03A6831680CA846F0E6FD42
:101DE000002812D129000CA846F01AFE00280CD1B8
:101DF00043461B6801349C420ADA02220021524207
:101E00000CA847F005F80028E5D02C003D0076E747
:101E1000B3464646A244002148467AF037F84B467E
:101E20001868596806F0CEFE4B46069007919868F0
:101E300006F084FE00220D4B06F001FE02000B00AE
:101E40000698079906F0F6FD049A059B06F0EDFD4D
:101E500000220B4B06F04CFE0028B5D12C003D00B3
:101E600000274DE7800F0020E8C8071080842E412E
:101E70008C0F0020880F0020FC1F002008C90710CD
:101E80000000F03FF0B5DE4657464E464546E0B509
:101E90004020C5B006F052FFE022040000210CA84B
:101EA00006F07CFF814B1B68002B00D18AE00222E8
:101EB000002152420CA846F067F8011E11D07C4860
:101EC00007F032F90CA846F065FD002C02D0200086
:101ED00006F058FF45B0F0BCBB46B246A946A04646
:101EE000F0BD08AB9946180079F0D0FF0898099921
:101EF00006F068FE4B46060098680F0006F01EFECE
:101F000000226C4B06F09BFD0B00020039003000F4
:101F100006F090FD00239A46674B049005911E0041
:101F2000664D3368002B23DD00239846644B9B46A7
:101F30003300464698465B462A6819680CA846F066
:101F400025F900280BDA07002A685146049D059EF2
:101F50005C48009501960297FEF71EFBB2E74346E8
:101F60001B680136B342E6DC4346B0461E00C2445D
:101F700021000CA846F0C0FA071EE5DB0021484608
:101F800079F084FF4B461868596806F01BFE4B46F3
:101F900006900791986806F0D1FD0022454B06F0A7
:101FA0004EFD02000B000698079906F043FD049AC7
:101FB000059B06F03AFD0022434B06F099FD0028F0
:101FC000AFD1C1E708AB99461800002179F05EFF58
:101FD0000898099906F0F6FD4B46060098680F0030
:101FE00006F0ACFD0022334B06F029FD0B00020089
:101FF0003900300006F01EFD00239A462E4B2F4D6F
:1020000098462F4B2F009B4646462500049005918D
:102010003368002B23DDB04600245E4611E03A68A9
:1020200031680CA846F0B2F8002812D129000CA89B
:1020300046F062FA00280CD143461B6801349C42EA
:102040000ADA0222002152420CA845F09DFF002826
:10205000E5D02C003D0076E7B3464646A244002179
:10206000484679F013FF4B461868596806F0AAFDF8
:102070004B4606900791986806F060FD00220D4BD4
:1020800006F0DDFC02000B000698079906F0D2FC72
:10209000049A059B06F0C9FC00220B4B06F028FDB4
:1020A0000028B5D12C003D0000274DE7800F00200F
:1020B00010C9071080842E418C0F0020880F00204B
:1020C000FC1F002030C907100000F03FF0B5DE46CD
:1020D00057464E464546E0B51C20C5B006F02EFEDC
:1020E000E022040000210CA806F058FE814B1B687A
:1020F000002B00D18AE00222002152420CA845F0B8
:1021000099FF011E11D07C4807F00EF80CA847F08B
:102110008BFB002C02D0200006F034FE45B0F0BC52
:10212000BB46B246A946A046F0BD08AB994618008A
:1021300079F0ACFE0898099906F044FD4B4606007C
:1021400098680F0006F0FAFC00226C4B06F077FC52
:102150000B0002003900300006F06CFC00239A46A8
:10216000674B049005911E00664D3368002B23DDFC
:1021700000239846644B9B463300464698465B4690
:102180002A6819680CA847F029F900280BDA07001B
:102190002A685146049D059E5C4800950196029769
:1021A000FEF7FAF9B2E743461B680136B342E6DCB4
:1021B0004346B0461E00C24421000CA847F03CF93B
:1021C000071EE5DB0021484679F060FE4B461868A3
:1021D000596806F0F7FC4B4606900791986806F0A0
:1021E000ADFC0022454B06F02AFC02000B000698CD
:1021F000079906F01FFC049A059B06F016FC0022C6
:10220000434B06F075FC0028AFD1C1E708AB9946F7
:102210001800002179F03AFE0898099906F0D2FCDE
:102220004B46060098680F0006F088FC0022334BEE
:1022300006F005FC0B0002003900300006F0FAFB46
:1022400000239A462E4B2F4D98462F4B2F009B462E
:1022500046462500049005913368002B23DDB046E7
:1022600000245E4611E03A6831680CA847F0B6F8E1
:10227000002812D129000CA847F0DEF800280CD164
:1022800043461B6801349C420ADA02220021524272
:102290000CA845F0CFFE0028E5D02C003D0076E7E5
:1022A000B3464646A2440021484679F0EFFD4B462E
:1022B0001868596806F086FC4B46069007919868A6
:1022C00006F03CFC00220D4B06F0B9FB02000B00AF
:1022D0000698079906F0AEFB049A059B06F0A5FB4D
:1022E00000220B4B06F004FC0028B5D12C003D0069
:1022F00000274DE7800F002038C9071080842E4149
:102300008C0F0020880F0020FC1F00205CC90710E4
:102310000000F03FF0B5DE4657464E464546E0B574
:102320002020C5B006F00AFDE022040000210CA820
:1023300006F034FD814B1B68002B00D18AE002229D
:10234000002152420CA845F0CBFE011E11D07C4862
:1023500006F0EAFE0CA847F0C7FE002C02D02000D1
:1023600006F010FD45B0F0BCBB46B246A946A046FB
:10237000F0BD08AB9946180079F088FD08980999D6
:1023800006F020FC4B46060098680F0006F0D6FBCE
:1023900000226C4B06F053FB0B00020039003000AA
:1023A00006F048FB00239A46674B049005911E00F7
:1023B000664D3368002B23DD00239846644B9B4613
:1023C0003300464698465B462A6819680CA847F0D1
:1023D00065FC00280BDA07002A685146049D059E1B
:1023E0005C48009501960297FEF7D6F8B2E743469F
:1023F0001B680136B342E6DC4346B0461E00C244C9
:1024000021000CA847F078FC071EE5DB00214846B8
:1024100079F03CFD4B461868596806F0D3FB4B46F3
:1024200006900791986806F089FB0022454B06F05C
:1024300006FB02000B000698079906F0FBFA049AC7
:10244000059B06F0F2FA0022434B06F051FB0028F0
:10245000AFD1C1E708AB99461800002179F016FD0D
:102460000898099906F0AEFB4B46060098680F00E5
:1024700006F064FB0022334B06F0E1FA0B00020089
:102480003900300006F0D6FA00239A462E4B2F4D25
:1024900098462F4B2F009B464646250004900591F9
:1024A0003368002B23DDB04600245E4611E03A6815
:1024B00031680CA847F0F2FB002812D129000CA8C3
:1024C00047F01AFC00280CD143461B6801349C429B
:1024D0000ADA0222002152420CA845F001FE00282F
:1024E000E5D02C003D0076E7B3464646A2440021E5
:1024F000484679F0CBFC4B461868596806F062FBF9
:102500004B4606900791986806F018FB00220D4B89
:1025100006F095FA02000B000698079906F08AFA71
:10252000049A059B06F081FA00220B4B06F0E0FAB4
:102530000028B5D12C003D0000274DE7800F00207A
:1025400068C9071080842E418C0F0020880F00205E
:10255000FC1F00208CC907100000F03FF0B5DE46DC
:1025600057464E464546E0B51C20F3B006F0E6FB64
:10257000CC220400002152000CA806F00FFC824B74
:102580001B68002B00D18AE00222002152420CA8D5
:1025900042F0E4FC011E11D07C4806F0C5FD0CA8F9
:1025A00042F0F4FD002C02D0200006F0EBFB73B0EB
:1025B000F0BCBB46B246A946A046F0BD08AB994662
:1025C000180079F063FC0898099906F0FBFA4B466D
:1025D000060098680F0006F0B1FA00226C4B06F076
:1025E0002EFA0B0002003900300006F023FA002317
:1025F0009A46684B049005911E00674D3368002B86
:1026000023DD00239846654B9B463300464698469B
:102610005B462A6819680CA842F0B4FC00280BDA63
:1026200007002A685146049D059E5D480095019665
:102630000297FDF7B1FFB2E743461B680136B3428C
:10264000E6DC4346B0461E00C24421000CA842F01E
:1026500085FD071EE5DB0021484679F017FC4B4657
:102660001868596806F0AEFA4B46069007919868CC
:1026700006F064FA0022464B06F0E1F902000B0076
:102680000698079906F0D6F9049A059B06F0CDF94D
:102690000022444B06F02CFA0028AFD1C1E708AB6A
:1026A00099461800002179F0F1FB0898099906F085
:1026B00089FA4B46060098680F0006F03FFA0022A0
:1026C000334B06F0BCF90B0002003900300006F075
:1026D000B1F900239A462F4B2F4D98462F4B2F00D0
:1026E0009B4646462500049005913368002B23DD68
:1026F000B04600245E4611E03A6831680CA842F00A
:1027000041FC002812D129000CA842F027FD002826
:102710000CD143461B6801349C420ADA0222002194
:1027200052420CA842F01AFC0028E5D02C003D00D3
:1027300076E7B3464646A2440021484679F0A6FB18
:102740004B461868596806F03DFA4B4606900791CB
:10275000986806F0F3F900220D4B06F070F90200BC
:102760000B000698079906F065F9049A059B06F098
:102770005CF900220B4B06F0BBF90028B5D12C0008
:102780003D0000274DE7C046800F002098C9071084
:1027900080842E418C0F0020880F0020FC1F002019
:1027A000B8C907100000F03FF0B5DE4657464E4668
:1027B0004546E0B52020F3B006F0C0FACC22040074
:1027C000002152000CA806F0E9FA824B1B68002B8E
:1027D00000D18AE00222002152420CA842F0EEFC15
:1027E000011E11D07C4806F09FFC0CA842F026FD8B
:1027F000002C02D0200006F0C5FA73B0F0BCBB4636
:10280000B246A946A046F0BD08AB9946180079F03B
:102810003DFB0898099906F0D5F94B4606009868E3
:102820000F0006F08BF900226C4B06F008F90B0044
:1028300002003900300006F0FDF800239A46684B8C
:10284000049005911E00674D3368002B23DD0023A3
:102850009846654B9B463300464698465B462A6839
:1028600019680CA842F0BEFC00280BDA07002A68A1
:102870005146049D059E5D48009501960297FDF71F
:102880008BFEB2E743461B680136B342E6DC4346A3
:10289000B0461E00C24421000CA842F0B5FC071E41
:1028A000E5DB0021484679F0F1FA4B461868596893
:1028B00006F088F94B4606900791986806F03EF9B5
:1028C0000022464B06F0BBF802000B000698079961
:1028D00006F0B0F8049A059B06F0A7F80022444BD6
:1028E00006F006F90028AFD1C1E708AB99461800F9
:1028F000002179F0CBFA0898099906F063F94B4664
:10290000060098680F0006F019F90022334B06F014
:1029100096F80B0002003900300006F08BF8002317
:102920009A462F4B2F4D98462F4B2F009B464646DD
:102930002500049005913368002B23DDB046002468
:102940005E4611E03A6831680CA842F04BFC002862
:1029500012D129000CA842F057FC00280CD14346A4
:102960001B6801349C420ADA0222002152420CA860
:1029700042F024FC0028E5D02C003D0076E7B34669
:102980004646A2440021484679F080FA4B46186832
:10299000596806F017F94B4606900791986806F0BB
:1029A000CDF800220D4B06F04AF802000B00069805
:1029B000079906F03FF8049A059B06F036F80022C6
:1029C0000B4B06F095F80028B5D12C003D000027F0
:1029D0004DE7C046800F0020C4C9071080842E41F7
:1029E0008C0F0020880F0020FC1F0020E4C9071076
:1029F0000000F03FF0B5DE4657464E464546E0B58E
:102A00003020F3B006F09AF9CC22040000215200E5
:102A10000CA806F0C3F9824B1B68002B00D18AE09A
:102A20000222002152420CA842F020FC011E11D0CB
:102A30007C4806F079FB0CA842F00EFF002C02D077
:102A4000200006F09FF973B0F0BCBB46B246A94621
:102A5000A046F0BD08AB9946180079F017FA08981F
:102A6000099906F0AFF84B46060098680F0006F08B
:102A700065F800226C4B05F0E2FF0B000200390004
:102A8000300005F0D7FF00239A46684B049005916B
:102A90001E00674D3368002B23DD00239846654BED
:102AA0009B463300464698465B462A6819680CA840
:102AB00042F0F0FB00280BDA07002A685146049D1B
:102AC000059E5D48009501960297FDF765FDB2E70A
:102AD00043461B680136B342E6DC4346B0461E005F
:102AE000C24421000CA842F09FFE071EE5DB002136
:102AF000484679F0CBF94B461868596806F062F8F9
:102B00004B4606900791986806F018F80022464B4D
:102B100005F095FF02000B000698079905F08AFF63
:102B2000049A059B05F081FF0022444B05F0E0FF6D
:102B30000028AFD1C1E708AB99461800002179F011
:102B4000A5F90898099906F03DF84B4606009868E3
:102B50000F0005F0F3FF0022334B05F070FF0B0070
:102B600002003900300005F065FF00239A462F4B24
:102B70002F4D98462F4B2F009B464646250004902C
:102B800005913368002B23DDB04600245E4611E03A
:102B90003A6831680CA842F07DFB002812D1290068
:102BA0000CA842F041FE00280CD143461B680134BA
:102BB0009C420ADA0222002152420CA842F056FB43
:102BC0000028E5D02C003D0076E7B3464646A244F7
:102BD0000021484679F05AF94B461868596805F0C3
:102BE000F1FF4B4606900791986805F0A7FF002279
:102BF0000D4B05F024FF02000B000698079905F025
:102C000019FF049A059B05F010FF00220B4B05F0FD
:102C10006FFF0028B5D12C003D0000274DE7C046CE
:102C2000800F0020F0C9071080842E418C0F0020F7
:102C3000880F0020FC1F002010CA07100000F03F82
:102C4000F0B5DE4657464E464546E0B54020F3B067
:102C500006F074F8CC220400002152000CA806F003
:102C60009DF8824B1B68002B00D18AE002220021D4
:102C700052420CA842F008FE011E11D07C4806F01A
:102C800053FA0CA843F042F8002C02D0200006F0C2
:102C900079F873B0F0BCBB46B246A946A046F0BD79
:102CA00008AB9946180079F0F1F80898099905F0F1
:102CB00089FF4B46060098680F0005F03FFF002291
:102CC0006C4B05F0BCFE0B0002003900300005F033
:102CD000B1FE00239A46684B049005911E00674D93
:102CE0003368002B23DD00239846654B9B46330059
:102CF000464698465B462A6819680CA842F0D8FDFB
:102D000000280BDA07002A685146049D059E5D489D
:102D1000009501960297FDF73FFCB2E743461B681A
:102D20000136B342E6DC4346B0461E00C2442100F1
:102D30000CA842F0D3FF071EE5DB0021484679F0DE
:102D4000A5F84B461868596805F03CFF4B460690BD
:102D50000791986805F0F2FE0022464B05F06FFEE1
:102D600002000B000698079905F064FE049A059B83
:102D700005F05BFE0022444B05F0BAFE0028AFD1FF
:102D8000C1E708AB99461800002179F07FF8089850
:102D9000099905F017FF4B46060098680F0005F0EB
:102DA000CDFE0022334B05F04AFE0B000200390035
:102DB000300005F03FFE00239A462F4B2F4D9846DA
:102DC0002F4B2F009B464646250004900591336803
:102DD000002B23DDB04600245E4611E03A683168DE
:102DE0000CA842F065FD002812D129000CA842F081
:102DF00075FF00280CD143461B6801349C420ADA57
:102E00000222002152420CA842F03EFD0028E5D0EB
:102E10002C003D0076E7B3464646A24400214846D2
:102E200079F034F84B461868596805F0CBFE4B46EC
:102E300006900791986805F081FE00220D4B05F081
:102E4000FEFD02000B000698079905F0F3FD049AB9
:102E5000059B05F0EAFD00220B4B05F049FE00281A
:102E6000B5D12C003D0000274DE7C046800F002063
:102E70001CCA071080842E418C0F0020880F002070
:102E8000FC1F00203CCA07100000F03FF0B5DE46F2
:102E900057464E464546E0B5A820F3B005F04EFF34
:102EA000CC220400002152000CA805F077FF834BD0
:102EB0001B68002B00D18BE00222002152420CA89B
:102EC00042F03CFF011E11D07D4806F02DF90CA800
:102ED00042F098FF002C02D0200005F053FF73B0A1
:102EE000F0BCBB46B246A946A046F0BD08AB994629
:102EF000180078F0CBFF0898099905F063FE4B465F
:102F0000060098680F0005F019FE00226D4B05F0D1
:102F100096FD0B0002003900300005F08BFD002308
:102F20009A46694B049005911E00684D3368002B4A
:102F300023DD00239846664B9B4633004646984661
:102F40005B462A6819680CA842F00CFF00280BDACF
:102F500007002A685146049D059E5E48009501962B
:102F60000297FDF719FBB2E743461B680136B342EF
:102F7000E6DC4346B0461E00C244A82221000CA84D
:102F800042F002FF071EE4DB0021484678F07EFF96
:102F90004B461868596805F015FE4B460690079198
:102FA000986805F0CBFD0022464B05F048FD020075
:102FB0000B000698079905F03DFD049A059B05F066
:102FC00034FD0022444B05F093FD0028AED1C0E74C
:102FD00008AB99461800002178F058FF0898099925
:102FE00005F0F0FD4B46060098680F0005F0A6FDC1
:102FF0000022344B05F023FD0B00020039003000A5
:1030000005F018FD00239A462F4B304D9846304B63
:103010002F009B4646462500049005913368002BFF
:1030200024DDB04600245E4612E03A6831680CA800
:1030300042F098FE002813D1A82229000CA842F0E3
:10304000A3FE00280CD143461B6801349C420ADAD7
:103050000222002152420CA842F070FE0028E4D067
:103060002C003D0074E7B3464646A2440021484682
:1030700078F00CFF4B461868596805F0A3FD4B46E5
:1030800006900791986805F059FD00220D4B05F058
:10309000D6FC02000B000698079905F0CBFC049AB9
:1030A000059B05F0C2FC00220B4B05F021FD00281A
:1030B000B4D12C003D0000274BE7C046800F002014
:1030C00048CA071080842E418C0F0020880F0020F2
:1030D000FC1F002068CA07100000F03FF0B5DE4674
:1030E00057464E464546E0B58820F3B005F026FE2B
:1030F000CC220400002152000CA805F04FFE834BA7
:103100001B68002B00D18BE00222002152420CA848
:1031100042F08CFE011E11D07D4806F005F80CA887
:1031200042F0ECFE002C02D0200005F02BFE73B024
:10313000F0BCBB46B246A946A046F0BD08AB9946D6
:10314000180078F0A3FE0898099905F03BFD4B465E
:10315000060098680F0005F0F1FC00226D4B05F0A9
:103160006EFC0B0002003900300005F063FC002308
:103170009A46694B049005911E00684D3368002BF8
:1031800023DD00239846664B9B463300464698460F
:103190005B462A6819680CA842F05CFE00280BDA2E
:1031A00007002A685146049D059E5E4800950196D9
:1031B0000297FDF7F1F9B2E743461B680136B342C7
:1031C000E6DC4346B0461E00C244882221000CA81B
:1031D00042F052FE071EE4DB0021484678F056FE1E
:1031E0004B461868596805F0EDFC4B460690079170
:1031F000986805F0A3FC0022464B05F020FC020075
:103200000B000698079905F015FC049A059B05F03C
:103210000CFC0022444B05F06BFC0028AED1C0E74B
:1032200008AB99461800002178F030FE08980999FB
:1032300005F0C8FC4B46060098680F0005F07EFCC0
:103240000022344B05F0FBFB0B000200390030007C
:1032500005F0F0FB00239A462F4B304D9846304B3B
:103260002F009B4646462500049005913368002BAD
:1032700024DDB04600245E4612E03A6831680CA8AE
:1032800042F0E8FD002813D1882229000CA842F062
:10329000F3FD00280CD143461B6801349C420ADA36
:1032A0000222002152420CA842F0C0FD0028E4D0C6
:1032B0002C003D0074E7B3464646A2440021484630
:1032C00078F0E4FD4B461868596805F07BFC4B46E6
:1032D00006900791986805F031FC00220D4B05F02F
:1032E000AEFB02000B000698079905F0A3FB049AB9
:1032F000059B05F09AFB00220B4B05F0F9FB00281B
:10330000B4D12C003D0000274BE7C046800F0020C1
:1033100074CA071080842E418C0F0020880F002073
:10332000FC1F002094CA07100000F03FF0B5DE46F5
:103330004E4657464546E0B50121AC4895B005F0EC
:103340000FFD8146002800D143E1022200215242B4
:1033500039F022F8002814DBA54B484619009A469C
:103360003DF0FAFC00280CD10F904A46A148A24B30
:103370000FA915F077FE041E10D021009F4805F01C
:10338000D3FE484639F09CF8484605F0FBFC15B0E2
:10339000F0BCBB46B246A946A046F0BD192005F0D8
:1033A000CDFC07908020000105F0C8FC051E00D16F
:1033B00013E18020000105F0C1FC8046002800D107
:1033C000D4E0079A002A00D1C2E08D4B43CB43C220
:1033D00043CB43C21B780021137010A878F056FD30
:1033E0001098119905F0EEFB060012980F0005F0F9
:1033F000A5FB0022834B05F022FB0B0002003900E5
:10340000300005F017FB0F00060000230A960B970B
:103410004F460493534601938023079E2A001921A7
:10342000300000975B003AF015F80890002812DA97
:103430008021754BB9460A9E0B9F1A68089B00961F
:10344000019702937148049B0901FCF7B9FF28001A
:1034500005F098FC7FE05346019380232A00192150
:10346000300000975B0039F0F5FF08900028DFDBA3
:10347000049B0021023310A8049378F007FD1098F4
:10348000119905F09FFB0C900D91129805F056FBD9
:1034900000225C4B05F0D3FA02000B000C980D994A
:1034A00005F0C8FA0A9A0B9B05F0BFFA0022584BA8
:1034B00005F01EFB0028ADD1534B80211A689B46B6
:1034C000524BB9460A9E0B9F9A46089B504600965F
:1034D000019702930901049BFCF772FF002110A8D9
:1034E00078F0D4FC1098119905F06CFB0600129846
:1034F0000F0005F023FB0022424B05F0A0FA02006A
:103500000B003000390005F095FA0F000600049614
:1035100005974F46D146A24680235B0042461900DC
:10352000280000973AF0C4FB041E23DAA4465B4649
:1035300054465A68CA4663468021B946049E059F90
:10354000029350462300009601970901FCF738FFCB
:10355000280005F017FC404605F014FC079B002BE3
:1035600000D10EE7180005F00DFC0AE7280005F071
:1035700009FCF3E780235B0042461900280000970E
:103580003AF096FB041ED1DB02239C46002110A8D2
:10359000E24478F07BFC1098119905F013FB089039
:1035A0000991129805F0CAFA0022164B05F047FA65
:1035B00002000B000898099905F03CFA049A059B53
:1035C00005F033FA0022124B05F092FA0028A3D13D
:1035D000ACE7104805F0B6FCD9E68020000105F004
:1035E000ADFB0028BAD08046B5E7C0467C18000085
:1035F000902A002038D00710A7040000E8CA07105E
:103600000CCB071080842E41C00F002028CB071060
:103610000000F03FD0CA0710F0B5DE4657464E46D0
:103620004546E0B5C02730237F0099B0380012939B
:10363000119705F083FB8046302005F07FFB079053
:103640008146380005F07AFB0600380005F076FB6D
:103650000500302005F072FB01210400C14805F08F
:103660007FFB8246002800D16CE1002E00D1A2E051
:103670004346002B00D19EE0002D00D19BE0002CA2
:1036800000D198E04B46002B00D194E002220021AB
:10369000524220F0B5FA8346031E00D048E10D33B4
:1036A0000E900EA95246B048FF3315F055FE011E8C
:1036B0000A903FD0AD4805F037FD00230022049268
:1036C0000593AB4B80219946AA4F0901F8680A9BE4
:1036D0000293049A059B0092019302005B464846C0
:1036E000FCF76EFE504620F0D3FA504605F04AFB38
:1036F000002E02D0300005F045FB4346002B02D0DF
:10370000404605F03FFB002C02D0200005F03AFBBC
:10371000079B002B02D0180005F034FB002D02D0CF
:10372000280005F02FFB19B0F0BCBB46B246A946F5
:10373000A046F0BD002114A878F0A8FB14981599B4
:1037400005F040FA04900591169805F0F7F900226B
:10375000894B05F074F90B0002000498059905F0F7
:1037600069F9864B049005910893302399464B469E
:1037700010930FAB0193220050460899009610ABAE
:103780000F9720F03DFC0B90002822DA0498059951
:10379000774B784F9946BA680090019180210B9B36
:1037A0000901029348465B46FCF70AFE80210B9B09
:1037B00009010A938AE7002300220492059300235B
:1037C000C0219B467D3B0A93694B6A4F994609018C
:1037D0007CE701239C46002114A8E34478F056FBC3
:1037E0001498159905F0EEF90C900D91169805F0C6
:1037F000A5F90022604B05F022F902000B000C989D
:103800000D9905F017F9049A059B05F00EF90022B1
:103810005B4B05F06DF90028A9D1554B554F049825
:103820000599BA6899460090019180210B9B484602
:10383000029309015B46FCF7C3FD11AB01934346BC
:10384000079A08990093504612AB20F0D9FB00214B
:1038500014A878F01BFB1498159905F0B3F904909F
:103860000591169805F06AF90022434B05F0E7F838
:1038700002000B000498059905F0DCF8A34634001B
:103880000490059102231E00119B290002934346D8
:103890000193109B5046009313AA5B4620F060FDF5
:1038A000002816DA26005C46834604980599FA68D3
:1038B0005B460090019180214846029309010A9BD2
:1038C000FCF77EFD504620F0E3F9504605F05AFA29
:1038D00010E7012E02D001231E00D5E70A9B00212C
:1038E0000233060014A80A9378F0D0FA14981599B8
:1038F00005F068F908900991169805F01FF9002263
:103900001D4B05F09CF802000B000898099905F082
:1039100091F8049A059B05F088F80022184B05F0F1
:10392000E7F80028AED15B46B34626001C00BCE792
:10393000002300220492059300230A930C4B0D4FA1
:103940009946B2E77D235B42029300220023009256
:10395000019308490023CA68C02105480901FCF702
:103960002FFDC5E62C090000E0D407102CCB071072
:1039700054CB0710C00F002080842E41902A0020D5
:103980000000F03FF0B5DE464E4645465746E0B5EE
:103990004D488FB0894605F0D1F9051E00D18FE062
:1039A000484621F0D1FB484A80460021280005F016
:1039B000F5F9002108A878F069FA0898099905F046
:1039C00001F906000A980F0005F0B8F800223F4BF5
:1039D00005F035F80B00390000270200300005F033
:1039E00029F83B4BBB469A46474604900591022670
:1039F0004C46280022F0D4F802220021280052422E
:103A000021F09EFF002807DB23002A0039005046E2
:103A100021F0D6FE002826DAB846A1465F4604000B
:103A2000484621F0E7F9182103002A4A08A804F0C3
:103A30001DFD294B08A89A6843460294D900049BAF
:103A4000059C009301943B00FCF7BAFC280022F08F
:103A5000A7F8280005F096F90FB0F0BCBB46B246B7
:103A6000A946A046F0BD012E01D00126C1E70223E0
:103A70009C460021A146040008A8E34478F006FA19
:103A80000898099905F09EF8069007910A9805F0A4
:103A900055F800220D4B04F0D2FF02000B000698EF
:103AA000079904F0C7FF049A059B04F0BEFF0022AB
:103AB0000A4B05F01DF8002899D1B8465F46AFE7DC
:103AC000074805F03FFAC7E74C0C000080842E4100
:103AD000902A002078CB0710C00F00200000F03F94
:103AE00058CB0710F0B5DE464E4657464546E0B582
:103AF0009DB00491A548012105F032F981460028C6
:103B000000D101E20121A14805F02AF982460028EE
:103B100000D1F6E1202005F011F98046492005F09A
:103B20000DF90500202005F009F90400049821F0A2
:103B30000BFB0222834600214846524221F000FF3F
:103B400000281BDB924B049F1E0005934A463B0056
:103B50005946300021F034FE00280FDB02220021FC
:103B60005046524221F0ECFE002807DB3B00524653
:103B70005946300021F024FE002822DD484622F07C
:103B80000FF8504622F00CF8484605F0FBF8504676
:103B900005F0F8F84346002B02D0404605F0F2F855
:103BA000002D02D0280005F0EDF8002C02D02000F6
:103BB00005F0E8F81DB0F0BCBB46B246A946A046E9
:103BC000F0BD0599484623F085F9002116A878F044
:103BD0005DF91698179904F0F5FF060018980F0084
:103BE00004F0ACFF00226B4B04F029FF0B00020035
:103BF0003900300004F01EFF0F00060000230A9673
:103C00000B974F4608935B46424611935146380046
:103C100011AB21F02DFC0690002818DA0498B94663
:103C20000A9E0B9F21F0E6F8182103005A4A16A8B5
:103C300004F01CFC594B16A8DA685B46D900069BB9
:103C4000009601970293089BFCF7BAFB96E75B4648
:103C5000424611935146380011AB21F009FC069001
:103C60000028DBDB089B0021023316A8089378F0BC
:103C70000DF91698179904F0A5FF0C900D9118985E
:103C800004F05CFF0022434B04F0D9FE02000B005D
:103C90000C980D9904F0CEFE0A9A0B9B04F0C5FE19
:103CA00000223F4B04F024FF0028ACD10498B94611
:103CB0000A9E0B9F21F09EF818210300364A16A891
:103CC00004F0D4FB5B46D900344B16A8DA680C9399
:103CD000069B009601970293089B0A91FCF770FBE4
:103CE0005A460023002A05DD5A46E3540133934225
:103CF000FBD19346002112A878F0C8F812981399C6
:103D000004F060FF060014980F0004F017FF002273
:103D1000204B04F094FE0B0002003900300004F048
:103D200089FE00234E460890099106930223994686
:103D3000B368002B01D149231193059B2A000093FE
:103D400059462000019611AB21F086FE002817DAB3
:103D50000700049821F04EF818210300114A16A814
:103D600004F084FB089809990C9BB1461A690090ED
:103D70000191069B0A99029716A8FCF721FBFDE624
:103D80004B46012B10D001239946D1E74C0C000083
:103D9000902A002080842E4198CB0710C00F00206D
:103DA0000000F03F88CB0710069B0021023307007C
:103DB00012A8069378F06AF81298139904F002FF9B
:103DC0000E900F91149804F0B9FE0022504B04F0AD
:103DD00036FE02000B000E980F9904F02BFE089A95
:103DE000099B04F022FE00224A4B04F081FE0028C9
:103DF0009CD1049820F0FEFF474A0300182116A822
:103E00000E9204F033FB089809990C9BB1461A698D
:103E1000069B0090019102970A9916A8FCF7D0FA28
:103E2000002112A878F032F81298139904F0CAFE13
:103E3000060014980F0004F081FE0022344B04F0B9
:103E4000FEFD0B0002003900300004F0F3FD0023FA
:103E50004E4606900791059302239946B368002BBE
:103E600000D1109310AB009322005B4628001199FB
:103E7000019621F0B5FF002817DA0700049820F01A
:103E8000B9FF0E9A0300182116A804F0EFFA06985D
:103E900007990C9BB1465A6900900191059B0A99BC
:103EA000029716A8FCF78CFA68E64B46012B02D065
:103EB00001239946D2E7059B00210233070012A88F
:103EC000059377F0E3FF1298139904F07BFE0890B6
:103ED0000991149804F032FE00220D4B04F0AFFD5E
:103EE00002000B000898099904F0A4FD069A079BAC
:103EF00004F09BFD0022074B04F0FAFD0028ABD133
:103F0000BCE7484604F03EFF044805F01BF851E6C4
:103F100080842E410000F03F88CB071058CB07105B
:103F2000F0B5CE46474680B59DB0002108A877F091
:103F3000ADFF0898099904F045FE04000A980D00A9
:103F400004F0FCFD0022304B04F079FD0B00020070
:103F50002900200004F06EFD002306000F009946A2
:103F600024E04146294805F0DFF8002104A877F055
:103F70008DFF0498059904F025FE040006980D00B5
:103F800004F0DCFD0022204B04F059FD02000B0080
:103F90002000290004F04EFD32003B0004F045FDF6
:103FA00000221B4B04F0A4FD002818D0022200219F
:103FB000524208A81FF05AF9804600281FD120213C
:103FC00008AA14481EF0F0FD804608A81FF072F9F8
:103FD0004346002BC5D101239C46E144C5E70E4B67
:103FE0000E489A6843460096019702930C494B4647
:103FF000FCF7E6F91DB0C0BCB946B046F0BD41467D
:10400000084805F091F8B0E780842E41CCCB07102A
:104010000000F03F902A0020C00F0020F0CB0710D6
:10402000AF630000A8CB0710F0B5D6464F46464612
:1040300002220023C0B5B8B00021524212A8059355
:104040001FF014F902220021524225A81FF00EF998
:10405000464C2021200012AA1EF0A6FD002800D008
:1040600080E02021200025AA1EF09EFD8146002828
:104070006BD100210AA877F009FF0A980B9904F088
:10408000A1FD04000C980D0004F058FD0022384BEF
:1040900004F0D5FC0B0002002900200004F0CAFC4B
:1040A000202306000F009A462EE053460AAA0593E5
:1040B00025A905AB12A81EF007FE804600282ED1C8
:1040C00002239C46002106A8E14477F0DFFE069813
:1040D000079904F077FD040008980D0004F02EFD08
:1040E0000022234B04F0ABFC02000B00200029004F
:1040F00004F0A0FC32003B0004F097FC00221D4BB2
:1041000004F0F6FC00280ED053460AAA059325A910
:1041100005AB12A81EF0D8FD80460028C5D0414648
:10412000154805F001F8154B1549DA684346009625
:104130000197029313484B46FCF742F925A81FF05C
:10414000B9F812A81FF0B6F806E049460E4804F088
:10415000EBFF12A81FF0AEF838B0E0BCBA46B1468B
:10416000A846F0BD094804F0EDFEF5E7902A0020CE
:1041700080842E410000F03F34CC0710C00F002097
:10418000AF630000F0CB071014CC0710F8CB07107A
:10419000F0B5CE46474680B5A3B0002108A877F019
:1041A00075FE0898099904F00DFD04000A980D00A9
:1041B00004F0C4FC0022274B04F041FC0B00020079
:1041C0002900200004F036FC00239846224B06000C
:1041D0000F00994608A823F0EFFA08AA20214846C4
:1041E00022F0F2FE08A823F0F5FA01239C460021F4
:1041F00004A8E04477F04AFE0498059904F0E2FC34
:10420000040006980D0004F099FC0022114B04F004
:1042100016FC02000B002000290004F00BFC320009
:104220003B0004F002FC00220C4B04F061FC00286F
:10423000D0D10B4B0B4C9A680B490290434620009F
:1042400000960197FCF7BCF823B0C0BCB946B04655
:10425000F0BDC04680842E41902A00200000F03F2F
:10426000C00F00205CCC0710AF630000F0B5DE4645
:104270004E46454657460023E0B57D4CA5441EAD4D
:104280002800099323F098FA2A002021794822F087
:104290009BFE8146002800D0E5E08021002338AA5B
:1042A00089001370013301328B42FAD100210EA82C
:1042B00077F0ECFD0E980F9904F084FC060010983E
:1042C0000F0004F03BFC00226B4B04F0B8FB0B002A
:1042D00002003900300004F0ADFB0023049005918A
:1042E0009A460AAC2FE08021009509AB0EAA8900FE
:1042F00038A8099622F0D8FF8046002830D1022342
:104300009C4600212000E24477F0C0FD20686168EF
:1043100004F058FC0600A0680F0004F00FFC002217
:10432000554B04F08CFB02000B003000390004F008
:1043300081FB049A059B04F078FB00224F4B04F0AC
:10434000D7FB00280FD080214026009509AB0EAA8C
:10435000890038A8099622F0A7FF80460028C2D01D
:10436000474804F0EFFD049E059F464B46481A69F6
:104370009B46434600960197444902935346079053
:10438000FCF71EF80021200077F080FD0A980B99B9
:1043900004F018FC0600A0680F0004F0CFFB002218
:1043A000354B04F04CFB02000B003000390004F0E8
:1043B00041FB04900591022600278023099901956D
:1043C00000949B0038AA0EA80A9723F05DF90028F4
:1043D00044D10A9B012B41D1012E01D00126ECE7EB
:1043E00002239C46002180462000E14477F04EFDE8
:1043F0002068616804F0E6FB0600A0680F0004F086
:104400009DFB00221C4B04F01AFB02000B00300045
:10441000390004F00FFB049A059B04F006FB002210
:10442000164B04F065FB0028C5D15B465A6943462C
:10443000079802931549049B059C009301944B46F1
:10444000FBF7BEFF280023F0C5F9B9239B009D446C
:10445000F0BCBB46B246A946A046F0BD80460C481B
:1044600004F070FDE1E70B4804F06CFDEDE7C04699
:104470001CFDFFFF902A002080842E410000F03FA9
:1044800078CC0710C00F00205CCC0710AF63000091
:1044900090CC071060CC0710F0B5DE4657464E466C
:1044A0004546E0B5A7B0002108A877F0EFFC0898D2
:1044B000099904F087FB04000A980D0004F03EFB04
:1044C0000022354B04F0BBFA0B000200290020004B
:1044D00004F0B0FA00239946304B06009A46304B60
:1044E0000F009B4624E04146584604F01DFE002183
:1044F00004A877F0CBFC069804F020FB0022264BA2
:1045000004F09DFA04000D000498059904F05AFB8C
:1045100002000B002000290004F08CFA32003B005E
:1045200004F083FA00221F4B04F0E2FA002820D0A6
:10453000382108AA50461EF001FF804608A81FF047
:104540003DFA4346002BCED101239C46002104A80E
:10455000E14477F09BFC0498059904F033FB0400D8
:1045600006980D0004F0EAFA00220B4B04F067FAFB
:10457000CEE70D4BE0219A684346009601970293DF
:104580000A484B464900FBF71BFF27B0F0BCBB466F
:10459000B246A946A046F0BD80842E41902A002054
:1045A000ACCC07100000F03FC00F0020F0CB07108C
:1045B000F0B5D6464F4646460023C0B5D2B018A83F
:1045C00005931FF0EDF935A81FF0EAF9474C3821A3
:1045D000200018AA1EF0B2FE002800D081E0382189
:1045E000200035AA1EF0AAFE814600286CD10021C9
:1045F0000AA877F04BFC0A980B9904F0E3FA040040
:104600000C980D0004F09AFA0022394B04F017FAC6
:104610000B0002002900200004F00CFA38230600E9
:104620000F009A462EE053460AAA059335A905AB1A
:1046300018A81EF021FF804600282ED102239C4698
:10464000002106A8E14477F021FC0698079904F0C0
:10465000B9FA040008980D0004F070FA0022244B07
:1046600004F0EDF902000B002000290004F0E2F94B
:1046700032003B0004F0D9F900221E4B04F038FA56
:1046800000280ED053460AAA059335A905AB18A8F1
:104690001EF0F2FE80460028C5D04146164804F0C0
:1046A00043FD164BE021DA68434649000293009629
:1046B00001974B461248FBF783FE35A81FF07EF9A1
:1046C00018A81FF07BF906E049460E4804F02CFDBF
:1046D00018A81FF073F952B0E0BCBA46B146A8461C
:1046E000F0BD094804F02EFCF5E7C046902A0020F2
:1046F00080842E410000F03F0CCD0710C00F002039
:10470000F0CB0710ECCC0710D0CC0710F0B5CE469C
:10471000474680B5B5B0002108A877F0B7FB0898E8
:10472000099904F04FFA04000A980D0004F006FA03
:104730000022274B04F083F90B000200290020001F
:1047400004F078F900239846224B06000F009946A2
:1047500008A823F05BFE08AA3921484623F03CFB59
:1047600008A823F061FE01239C46002104A8E04430
:1047700077F08CFB0498059904F024FA040006985D
:104780000D0004F0DBF90022114B04F058F902008F
:104790000B002000290004F04DF932003B0004F02A
:1047A00044F900220C4B04F0A3F90028D0D1E021F9
:1047B0000A4B0B4C9A684900029043462000009631
:1047C0000197FBF7FDFD35B0C0BCB946B046F0BD62
:1047D00080842E41902A00200000F03FC00F00206E
:1047E0005CCC0710F0B5DE464E46454657460023E2
:1047F000E0B57F4CA5442CAD2800099323F006FEBC
:104800002A0039217B4823F0E7FA8146002800D0AE
:10481000E9E08021002358AA890013700133013296
:104820008B42FAD100210EA877F030FB0E980F9939
:1048300004F0C8F9060010980F0004F07FF9002278
:104840006D4B04F0FCF80B0002003900300004F05E
:10485000F1F800239A46049005910AAC72230227CE
:104860009B4600265B46802109930296019600959F
:1048700009AB0EAA890058A823F012FC002800D02A
:10488000ACE0012F01D00127ECE702239C46002178
:1048900080462000E24477F0F9FA2068616804F06D
:1048A00091F90600A0680F0004F048F90022524B6D
:1048B00004F0C5F802000B003000390004F0BAF82B
:1048C000049A059B04F0B1F800224C4B04F010F957
:1048D0000028C3D14A4BE021049E059F1A699B46DC
:1048E0004346484800960197029349005346079073
:1048F000FBF766FD0021200077F0C8FA0A980B99B3
:1049000004F060F90600A0680F0004F017F9002217
:10491000394B04F094F802000B003000390004F029
:1049200089F80490059102270026802309990396AF
:104930000296019500949B0058AA0EA80A9623F0AF
:10494000E3FC002845D10A9B012B42D1012F01D065
:104950000127EAE702239C46002180462000E1442B
:1049600077F094FA2068616804F02CF90600A068DA
:104970000F0004F0E3F800221F4B04F060F802007F
:104980000B003000390004F055F8049A059B04F040
:104990004CF80022194B04F0ABF80028C3D15B4659
:1049A000E0215A694346079802934900049B059CFD
:1049B000009301944B46FBF703FD280023F034FDE0
:1049C000D9239B009D44F0BCBB46B246A946A046F5
:1049D000F0BD80460C4804F0B5FAE0E780460B488D
:1049E00004F0B0FA76E70A4804F0ACFAE8E7C0460B
:1049F0009CFCFFFF902A002080842E410000F03FA5
:104A0000C00F00205CCC071060CD071048CD071008
:104A100030CD0710F0B5DE4657464E464546E0B568
:104A2000CA4A87B01368002B22D1012119201160D6
:104A3000C74AC84E10608020C74AC00010600D20D1
:104A4000C64A33601060C64A0A381060C54A13600F
:104A5000C54A1160C54A1160C54A1160C54A136054
:104A6000C54A1360C54A1360C54A1360C54A13603E
:104A700057F04CFF021E00D0A2E20026C24BB64CFB
:104A8000C24F190022680393009601970123C04882
:104A900004F04AFBBB4F3B68012B00D1C0E202226D
:104AA000BC4B002118005242049337F01FF8002835
:104AB00000DAAAE20F2224681034224206D0E3175B
:104AC0001B0FE1180A409B1A1033E418250010351B
:104AD000280004F033F9B04B06001860280098460F
:104AE00004F02CF9AD4B050099461860002E00D15A
:104AF000BEE2002800D1AEE222000021300004F026
:104B00004DF922002800002104F048F90122A44BAD
:104B1000A44CA54E2360A54B954D3360984B1B6864
:104B200013402A68134304D0FCF70CFA2B68002BBF
:104B300003D1904B1B68DA0722D59D4A3368216860
:104B400001929C4A002000921022FBF713FF9A4A20
:104B5000336821680192994A002000921822FBF7DD
:104B600009FF974A336821680192964A0020009213
:104B70002022FBF7FFFE2B68002B03D17D4B1B6827
:104B80009A0722D5754B9A461B689B46744B1C6846
:104B9000002C13D00126734B05933300234026428B
:104BA00000D1FCE10D23B443524600201360FCF712
:104BB00085FA53465A461A60002CEED1FCF7F0FAFB
:104BC0002B68002B03D16B4B1B68DA0406D5FCF76E
:104BD000B7FC2B68002B03D1664B1B689B0404D5E4
:104BE000FCF73EFD2B68002B03D1634B1B689A0733
:104BF00006D5FCF775FB2B68002B03D15E4B1B68B9
:104C00005A0707D50020FCF7D1FD2B68002B03D1F4
:104C1000594B1B689A0607D50020FCF7EBFE2B6862
:104C2000002B03D1544B1B685A0607D50020FDF713
:104C300005F82B68002B03D14F4B1B681A061BD5B8
:104C40000020FDF71FF92B68002B03D14A4B1B688E
:104C50001A0611D50020FDF739FA2B68002B03D175
:104C6000454B1B681A0607D50020FDF753FB2B6840
:104C7000002B03D1404B1B68DA0507D50020FDF758
:104C80006DFC2B68002B03D13B4B1B689A0507D5A5
:104C90000020FDF789FD2B68002B03D1364B1B68E4
:104CA0005A0507D50020FDF7A5FE2B68002B03D180
:104CB000314B1B681A0507D50020FDF7C1FF2B6893
:104CC000002B03D12C4B1B68DA0407D50020FEF71C
:104CD000DDF82B68002B03D1274B1B689B0405D5FF
:104CE0000020FEF7FBF92B68002B03D1234B1B6838
:104CF0005A070CD5344B0421009300201423334A67
:104D0000FBF786FD2B68002B03D11C4B1B689A0612
:104D10000CD52F4B06210093002020232D4AFBF7B2
:104D200077FD2B68002B03D1144B1B685A0657D50F
:104D3000294B0721009300203023284AFBF768FD08
:104D40002B68002B4ED10D4B1B6849E08C2A0020AC
:104D50008C0F0020DC1F0020880F0020940F002003
:104D6000900F0020A81F0020840F0020800F00203B
:104D700058100020E41F0020E81F0020F41F00202E
:104D8000F81F002018210020F0D507100000F03F88
:104D90006CC50710902A0020FC1F0020E01F002097
:104DA0009CCE0710F01F0020EC1F002084CE0710BF
:104DB00024C6071034C6071044C6071054C607108F
:104DC00064C6071074C60710A0CA071070CE07107B
:104DD000ACCA071050CE0710B8CA071020CE071073
:104DE0001B060BD5A54B0821009300204023A44AA5
:104DF000FBF70EFD2B68002B00D0E7E0A14E3368D7
:104E00009A0706D50020FEF791FA2B68002B03D1F4
:104E10003368DA0600D49FE00020FEF7FDFB2B6824
:104E2000002B00D197E033681A0400D4D7E0E022C9
:104E3000D201134333603B68012B03D0924803999E
:104E400004F072F980235B019A4680239B010124C0
:104E50009B46200020F078F9AA301AD053463268D9
:104E6000296813400B4307D021000020FEF78AFD7C
:104E70002B68002B03D132685B461A4203D0210015
:104E80000020FEF72FFE3B68012B02D00A2004F021
:104E90000DF801341F2CDCD12B68002B02D13368B4
:104EA000DA0306D50020FFF73BF82B68002B02D170
:104EB00033689A0306D50020FFF7B6F82B68002B5D
:104EC00002D133685A0305D5FFF762F92B68002B2E
:104ED00002D133681A0305D5FFF7C8F92B68002BF8
:104EE00002D13368DA0205D5FFF7D6FA2B68002B1A
:104EF00002D133689A0205D5FFF75AFB2B68002BC5
:104F000002D133685A0205D5FFF700FC2B68002B4D
:104F100042D133681B023FD443461868002801D0B1
:104F200003F030FF4B461868002801D003F02AFF39
:104F3000049836F0EFF90399544804F0F5F857F067
:104F4000EFFC041E66D1200007B0F0BCBB46B246A1
:104F5000A946A046F0BD3368F022120213429FD04A
:104F60001A0400D563E7802252011A40D9015BD4AC
:104F700099015CD5002A07D00F210020FEF702FD21
:104F80002B68002B03D133689A0400D488E70F21E3
:104F90000020FEF7A7FD7FE7FFF724FCBCE7022215
:104FA00022420BD10422224206D10020FCF786F8CF
:104FB00053465A461A60F0E5059B1B689443F3E597
:104FC0003349344804F0B0F80124BCE700202D4EEA
:104FD000FEF7ACF92B68002B00D119E71CE7DA01CA
:104FE00003D49A01C8D45B0125D407210020FEF721
:104FF000C9FC2B68002B03D133689A0400D44FE717
:1050000007210020FEF76EFD46E72149224804F003
:105010008BF890E722001E49204804F085F892E7BB
:105020001F4804F081F83AE5002AE6D0DDE759018F
:10503000FAD5002A07D010210020FEF7A3FC2B6828
:10504000002B03D133689A0400D429E710210020F3
:10505000FEF748FD20E7300003F094FE00234A46A7
:10506000136042460A490F48136004F05DF853E7A5
:105070000028F3D003F086FEF0E7C046C4CA07104C
:10508000E0CD0710DC1F0020B4CD0710C8CD0710FD
:10509000ECD5071050C5071078CD0710E8C50710EC
:1050A000A8C507108CCD0710094A10B594464024B6
:1050B000830063441A68C000624080341440802238
:1050C000520113431C60034B9C466044416010BD79
:1050D00004C0014000400140074B80009C466044F2
:1050E0000368C90092000A435A400C231A408023E7
:1050F0005B0103431A60704704C00140084B800005
:105100009C466044002905D0802302229B01034372
:105110001A607047C02302229B0103431A60F8E71C
:1051200004C00140D0231B061B6830B5050058425F
:1051300043412F205B4283430D48EC0884460720FF
:1051400028408000814020000A4D3C3063448000AC
:10515000A40041511B19002A04D08022920113435C
:10516000196030BDC022920113431960F9E7C046AF
:105170003041014000400140D023F0B5C6461B0637
:1051800098461B680C4F9B001600FA5804000D004F
:1051900000B5104209D1290014430D203200FC5003
:1051A00000F072F980BCB846F0BD01F0D7FD43466F
:1051B0001B689B00FA58EEE7E02E002010B50400B3
:1051C0000D2000F051FAD0231B061B6802499B00FA
:1051D0005A58A2435A5010BDE02E00200123D0227D
:1051E0008340120693629361094A402194468300EA
:1051F00063441A68C0004A40803111408022520145
:1052000013431960034B9C46052360444360704779
:1052100004C0014000400140024B18688007C00FE5
:105220007047C04600C00640EFF3108072B6034AD4
:105230001368002BFCD0BFF35F8F70472C0100D0A8
:10524000BFF35F8F0022024B1A6080F31088704713
:105250002C0100D070B5EFF3108C72B60D4D2B6899
:10526000002BFCD0BFF35F8F0724CB08C618C05CAF
:1052700001230C40A3401C000440034207D1184303
:105280003070BFF35F8F2C608CF3108870BD1000FE
:1052900001F04CFD2C0100D0F8B54746CE468846BB
:1052A00080B5EFF3108C72B6214D2C68002CFCD029
:1052B000BFF35F8F9A422CD8D4080727055D0619E3
:1052C00001241740BC402C421FD0072101278946EA
:1052D00009E0D408055D06194C4639001440A14088
:1052E0000C00294211D001329342F2D201204042F7
:1052F000BFF35F8F00220E4B1A608CF310880028DA
:105300000FDBC0BCB946B046F8BD25431000357070
:10531000EEE7BFF35F8F00232B608CF31088012032
:1053200040424346002BECD0089801F0FFFCC046F9
:105330002C0100D030B5EFF3108C72B60A4C236804
:10534000002BFCD0BFF35F8F072301220B409A4054
:10535000CD08435D93434355BFF35F8F0023236024
:105360008CF3108830BDC0462C0100D00021044BC6
:10537000044ABFF35F8F02C39342FAD17047C0461D
:10538000000100D0800100D0044A1078431CDBB239
:10539000172B00D9102313707047C0465C100020F3
:1053A00010B5064B064C82B00100009318221F2353
:1053B0002000FFF771FF02B010BDC046F4D5071002
:1053C0001421002001238340002904D0034A1360E4
:1053D000034A13607047034A1360FBE780E200E072
:1053E00000E100E080E100E001238340014A136016
:1053F0007047C04600E200E0084B10309B68800018
:10540000C358002B07D0064A00209B1A2F229A422D
:105410004041C0B270470020FCE7C04600ED00E00C
:1054200060100020024B10309B688000C05870470D
:1054300000ED00E070B50D00EFF3108672B60F4A74
:105440001368002BFCD0BFF35F8F0D4B10309B68AF
:1054500084001B590B4A934203D09D4201D001F0B6
:105460007DFC074B9B681D51BFF35F8FBFF35F8FC0
:105470000022024B1A6086F3108870BD240100D010
:1054800000ED00E0CD010010F0B54E464546DE4689
:105490005746E0B583B0060000919046EFF3108BBD
:1054A00072B6654A1368002BFCD0BFF35F8F0025EE
:1054B000624B5D579A46002D00DA79E052466B0048
:1054C0005F4C5F19BF000193E31999469B79103631
:1054D00013705C4BB6009B6899590B1B2F2B33D96B
:1054E000594B994200D07CE0019B02379C46574BB8
:1054F0006544AD006353564BE719043BDB1B554A2B
:105500001B055B0D651913436B80534B0121AB8069
:10551000FF23AB714346EB71009BAB604B460B43E3
:105520001900484B9B689951BFF35F8FBFF35F8FA2
:105530000022414B1A608BF3108803B0F0BCBB46CD
:10554000B246A946A046F0BD01200A008243D379A5
:10555000434549D9BC464746884607E05800C0182D
:1055600080002018C179B94228D902000623D356F9
:10557000002BF3DA9A46131D9C464146B846374F36
:10558000484663460438C01A0005324B400D1843A4
:10559000019B908095715A1953469200A418A371EB
:1055A00043462F4AE371009B2260A780A360B8E7BF
:1055B00001F0D4FB002553465D577FE79A464146EC
:1055C000131DB84667469C46908804374005001571
:1055D000E7196044C01BE0270005400D3F02074368
:1055E000CEE701F0BBFB7FE713001E491B1B5B41AD
:1055F0005943090D154BBD1CE353154B6519043B6D
:105600005B1B1B05134D5B0D2B43AC464D466B805E
:1056100065460437131FE719DB1B1B055B0D1D4394
:105620004B4699714146D97100999D8099604946D0
:105630000B4B0143136074E7240100D0313000208C
:105640006010002000ED00E0CD01001000A1FFFF80
:105650009010002000E0FFFF01BDFFFF01BD000032
:1056600001488047AAAA0000F0B5DE4657464E46DC
:105670004546E0B50C0083B0EFF3108872B65D4A82
:105680001368002BFCD0BFF35F8F5B4B5B499A68BC
:10569000030010339F00D5598D4239D0A5424AD01E
:1056A000574EAA1B2F2A33D8012292468240914698
:1056B0004846544A1268104001904846524A1060C9
:1056C000BFF35F8FEFF305829346002A35D09342F4
:1056D00001D001F043FB2A0053469A43906884426C
:1056E00008D175E04B005B189B00F3189868A04246
:1056F00034D01A00062151560029F3DA844253D0DF
:10570000019B002B26D04A46404B1A603D4B1A6045
:10571000394B9B68DD51BFF35F8FBFF35F8F002272
:10572000344B1A6088F3108803B0F0BCBB46B24615
:10573000A946A046F0BD0D00EAE72A0053469A4369
:1057400090688442D6D1062010561300002809DA4A
:105750000D0031E04A462C4B1A60D9E70620185656
:10576000002822DB42001118890074188A46A168BB
:105770009960E179D971062161569971002925DB7B
:10578000A488F11A6405241554440919E024090574
:10579000490D24022143998013181D4A9B0011785A
:1057A000F31899711070ABE713005946002914D112
:1057B000FF3191711749918015490A789A71164AFB
:1057C0009B1B5B415A43120D0A7099E71349E2E7AC
:1057D0000620105613000028C4DA114A1149D21AC3
:1057E000083A5002400D014399800F4952080A437C
:1057F000DA8085E7240100D000ED00E0CD01001043
:105800006010002000E100E080E100E080E200E0C4
:105810003130002001BDFFFFAAAA000001BD000039
:105820009A10002000F0FFFF00F8FFFF032310B5DF
:105830000400074A18409446C0009C43FC33834050
:105840006444226881409A4313000B43236010BDD7
:1058500000E400E070B5EFF3058101240443EFF3A9
:10586000108C72B6214A1368002BFCD0BFF35F8FF7
:105870001F4B05001F4AED1A6D416A43120D1E4D64
:105880008900AE6852B27658A6421CD006215956FD
:1058900091421CD012215956914222D01E215956B4
:1058A000914220D02A2159560324914210D0134B03
:1058B00019781A708171BFF35F8F00220B4B1A6049
:1058C0008CF3108870BDAB680D4C5C50EFE7002482
:1058D0006100091989005B18FF21997109499980B4
:1058E000E5E70124F4E70224F2E7C046240100D0F2
:1058F00060100020AAAA000000ED00E03130002076
:10590000CD01001001BDFFFF054B064A1360064A9A
:10591000136053609360D360136153619361704768
:105920008080808000E400E004E400E01F2110B5E6
:10593000091A0248FFF7FEFC10BDC04637300020B0
:1059400010B5084B084C82B00100009300220523DB
:105950002000FFF7A1FC002801DB1F23181A02B06A
:1059600010BDC04610D607103730002070B50400B7
:105970000E001500FFF708FD0100200000F006F8FA
:10598000A680E580BFF35F8F70BDC046024B9C468A
:1059900061448900016070474000003410B5040084
:1059A000FFF7F2FC01002000FFF7F0FFFF23237157
:1059B000BFF35F8F10BDC04610B50400FFF7E4FCD5
:1059C00001002000FFF7E2FFFF23A380BFF35F8FFA
:1059D00010BDC04610B504000120FFF7E1FC034BE9
:1059E000C3189B002360BFF35F8F10BD40000034DD
:1059F000034B9C46614489000160BFF35F8F704791
:105A00004000003483680B4810B58446614462440A
:105A10001201090159189B185C684A6801209442D8
:105A200001D802D00020C0B210BD1A680B689A429B
:105A3000F9D8F7E7FFFFFF0F0A4B1968EFF3108063
:105A400072B60A68002AFCD0BFF35F8F1B68BFF3F1
:105A50005F8F00221A6080F3108840BF0020002171
:105A60007047C046F42F0020F8B5574645464E46CD
:105A7000DE46E0B598460CAB1C780DAB1B780700F2
:105A800091469A460568002C5AD1AC7B002C3BD03D
:105A9000660029683619033E89194B78AB73002BD1
:105AA00000D1EB7300238B704B700B702B4BE21803
:105AB000BB6812019B184A461A6042465A600A9A0D
:105AC0009A600B9ADA6000238B704B700B706B7BC3
:105AD0009B46002B27D022006B685946A868984740
