:020000041000EA
:1000000000B5324B212058609868022188439860DF
:10001000D860186158612E4B002199600221596106
:100020000121F02299502B49196001219960352056
:1000300000F044F80222904214D00621196600F024
:1000400034F8196E01211966002018661A6600F04E
:100050002CF8196E196E196E052000F02FF8012189
:100060000842F9D1002199601B49196000215960AB
:100070001A491B48016001219960EB211966A021F2
:10008000196600F012F800219960164914480160C1
:100090000121996001BC002800D000471248134993
:1000A000086003C880F30888084703B5996A0420EC
:1000B0000142FBD001200142F8D103BD02B5186610
:1000C0001866FFF7F2FF186E186E02BD00000240BE
:1000D000000000180000070000035F00212200005C
:1000E000F4000018222000A00001001008ED00E03C
:1000F00000000000000000000000000074B24E7A12
:1001000000200420F7010010C3010010C5010010F9
:10011000C1010010C1010010C1010010C101001097
:10012000C1010010C1010010C1010010C701001081
:10013000C1010010C1010010C9010010CB01001065
:10014000CD010010CD010010CD010010CD01001037
:10015000CD010010CD010010CD010010CD01001027
:10016000CD010010CD010010CD010010CD01001017
:10017000CD010010CD010010CD010010CD01001007
:10018000CD010010CD010010CD010010CD010010F7
:10019000CD010010CD010010CD010010CD010010E7
:1001A000CD010010CD010010CD010010CD010010D7
:1001B000CD010010CD010010CD010010CD010010C7
:1001C00000BE00BE00BE00BE00BE00BEEFF3058054
:1001D000103800BEF2EB887110B10E1030B10E1065
:1001E0003402001090A31AE700201F49086006C8D7
:1001F00081F3088810471D48006800282FD10DA4FE
:100200000ECC002902D000F012F8F9E71849194A7B
:10021000002000E001C19142FCD1174988471749ED
:1002200088471749884700BEFDE701C901C29A42C5
:10023000FBD3704730B10E10C0000020A017002083
:1002400010C80E10000004200000042010C80E107A
:10025000001004200010042000000000704709482E
:1002600012F0F0F90047000008ED00E0000000D0B7
:10027000C0170020B8300020750D011009030010D0
:10028000990E01105756000006005250ABB3605350
:10029000A8F3081006005250861C0302B8F3081099
:1002A000060052505422A29DC8F308100500525077
:1002B000DE65F46810C80E10F8B5C0460648074958
:1002C000091A8B10C90FC91810B5491003D0044B77
:1002D000002B00D0984710BDA0170020A0170020C9
:1002E00000000000054B10B5002B03D00449054861
:1002F00000E000BFFFF7E2FF10BDC04600000000B5
:10030000342F00200077081010B501210A2000F0DA
:100310001BF81AF0CFFF51F085F800200EF0C2FB59
:1003200004000348210013F057F8200010BDC04618
:10033000007708100023034A190002604360100090
:100340007047C04600B47E6370B50500002914D123
:100350000024002D10DD0121002015F0CFF9FA2036
:100360000FF010FF0021002015F0C8F90134FA2029
:100370000FF008FFA542EED170BD13F039F80A481E
:1003800015F0B4F90028E3D00121002015F0B6F9EA
:1003900019200FF0F7FE0021002015F0AFF9192009
:1003A0000FF0F0FEF0E7C0464A500000002803D0EE
:1003B0006322002302604360632000217047C0462F
:1003C000F0B50500484283B04317022B21D0032B20
:1003D00044D0002B34D0012B19D1274C274904409D
:1003E000200012F061F906003FF028FD24490700C3
:1003F000200012F059F933000A0022482900009722
:1004000012F0EAFF204B1B68986886F029F803B0C9
:10041000F0BD194C1A490440200012F045F9184962
:100420000600200012F040F90A00184833002900A5
:1004300012F0D2FF144B1B68986886F011F8E6E7BB
:100440000F4912F031F912480A00290012F0C4FFD6
:100450000D4B1B68986886F003F8D8E7064C0849EE
:100460000440200012F020F905490600200012F097
:100470001BF908480A00D9E7FFFFFF9F6079FEFFDC
:10048000A08601001C7708105C1600203877081041
:100490000C7708105077081030B5744C744BA54495
:1004A0000E93744B02220F9300231093724B002182
:1004B0001293724B5242139303231493704B1AA856
:1004C0001693704B0EAD1793382318935CF06AFAAD
:1004D000041E54D1AA6829681AA85CF077FA00288B
:1004E00000D06CE007A91AA85CF076FB002800D0C9
:1004F0009DE069461AA85CF055FB002800D088E012
:100500001C226846696886F0EFF8002800D072E087
:100510001C22684607A986F0E7F800285DD101345F
:100520001035032CD6D1802280ABD2001870013058
:1005300001339042FAD1642402E0013C002C2FD018
:10054000802280A9D2001AA85CF040FA0028F4D0DA
:1005500040424005420D030C9B1A9B009B189A00D9
:100560009B189C001C19484B64019C4664426444DF
:100570001AA85CF02FFB2000444B9D4430BD404244
:100580004005420D030C9B1A9B009B189A009B1878
:100590009C001C193E4B64019C4664426444EAE79B
:1005A00069461AA85CF0FEFA00284ED11C22684663
:1005B000384986F099F8041EDAD0374CD8E7600144
:1005C000001B800000198300C018344B84009C4637
:1005D0000419640164426444CAE763011B1B9B0065
:1005E00018198300C0182E4B84009C46041964011E
:1005F00064426444BCE763011B1B9B001819830021
:10060000C018284B84009C46041964016442644469
:10061000AEE76001001B800000198300C018224B68
:1006200084009C460419640164426444A0E76001AC
:10063000001B800000198300C0181C4B84009C46DE
:10064000041964016442644492E743425B055A0D15
:100650001B0C9B1A9B009B189A009B189C001C1952
:10066000134B64019C466442644481E7FCF9FFFF3C
:10067000F48B0810647708108477081088770810C6
:10068000A8770810E477081049F1FFDF040600009E
:100690006CF1FFDF0478081043F1FFFF66F1FF9F64
:1006A0005BF1FF9F5DF1FF9F60F1FF9F63F1FF9F93
:1006B00045F1FFDF30B5744C744BA5441093744B77
:1006C0000222119300231293724B00211493724B58
:1006D0005242159303231693704B1CA81893704B2A
:1006E00010AD199338231A935CF08CFA041E54D180
:1006F000AA6829681CA85CF099FA002800D06CE070
:1007000008A91CA85CF0C0FA002800D09DE069464A
:100710001CA85CF09DFA002800D088E020226846E2
:10072000696885F0E1FF002800D072E02022684669
:1007300008A985F0D9FF00285DD101341035032CBC
:10074000D6D1802282ABD2001870013001339042A2
:10075000FAD1642402E0013C002C2FD0802282A92F
:10076000D2001CA85CF062FA0028F4D04042400598
:10077000420D030C9B1A9B009B189A009B189C002F
:100780001C19484B64019C46644264441CA85CF0FC
:1007900079FA2000444B9D4430BD40424005420D53
:1007A000030C9B1A9B009B189A009B189C001C1919
:1007B0003E4B64019C4664426444EAE769461CA8D7
:1007C0005CF046FA00284ED120226846384985F070
:1007D0008BFF041EDAD0374CD8E76001001B800085
:1007E00000198300C018344B84009C46041964012E
:1007F00064426444CAE763011B1B9B001819830011
:10080000C0182E4B84009C46041964016442644461
:10081000BCE763011B1B9B0018198300C018284B01
:1008200084009C460419640164426444AEE760019C
:10083000001B800000198300C018224B84009C46D6
:100840000419640164426444A0E76001001B800055
:1008500000198300C0181C4B84009C4604196401D5
:100860006442644492E743425B055A0D1B0C9B1A99
:100870009B009B189A009B189C001C19134B640149
:100880009C466442644481E7F4F9FFFFF48B08104E
:10089000247808108477081048780810A877081082
:1008A0006C780810E4F0FFDF0C06000002F1FFDFB7
:1008B00090780810DEF0FFFFFCF0FF9FF1F0FF9F43
:1008C000F3F0FF9FF6F0FF9FF9F0FF9FE0F0FFDFEE
:1008D00070B5784C784BA5441893784B0222199345
:1008E00000231A93764B00211C93764B52421D93A2
:1008F00003231E93744B34A82093744B18AD21939B
:10090000382322935CF0D6F9041E5BD1AE682968C7
:10091000320024A812F0F4FA320024A934A85CF0C2
:10092000DDF9002800D06DE00CA934A85CF0BAFC19
:10093000002800D09EE0694634A85CF099FC0028AD
:1009400000D089E030226846696885F0CDFE002835
:1009500000D073E0302268460CA985F0C5FE00285F
:100960005ED101341035032CD0D180229AABD20055
:100970001870013001339042FAD1642402E0013C46
:10098000002C30D080229AA9D20034A85CF0A6F9BD
:100990000028F4D040424005420D030C9B1A9B00F6
:1009A0009B189A009B189C001C19494B64019C469B
:1009B0006442644434A85CF073FC2000CD23DB0067
:1009C0009D4470BD40424005420D030C9B1A9B00A4
:1009D0009B189A009B189C001C193E4B64019C4676
:1009E00064426444E9E7694634A85CF041FC0028AD
:1009F0004ED130226846384985F076FE041ED9D0A3
:100A0000364CD7E76001001B800000198300C01836
:100A1000334B84009C460419640164426444C9E772
:100A200063011B1B9B0018198300C0182D4B840009
:100A30009C460419640164426444BBE763011B1BC8
:100A40009B0018198300C018274B84009C4604198A
:100A5000640164426444ADE76001001B800000193A
:100A60008300C018214B84009C4604196401644231
:100A700064449FE76001001B800000198300C018D8
:100A80001B4B84009C46041964016442644491E752
:100A900043425B055A0D1B0C9B1A9B009B189A0046
:100AA0009B189C001C19134B64019C4664426444CF
:100AB00080E7C04698F9FFFFF48B0810B47808105F
:100AC00084770810E8780810A87708101C790810B7
:100AD00057F0FFDF80F0FFDF5079081051F0FFFF83
:100AE00079F0FF9F6BF0FF9F6EF0FF9F71F0FF9F0B
:100AF00075F0FF9F53F0FFDF30B5744C744BA54485
:100B00000093744B0222019300230293724B002145
:100B10000493724B5242059303230693704B2CA807
:100B20000893704B6D46099338230A935CF0D0FB11
:100B3000041E54D1AA6829682CA85CF0DDFB0028AB
:100B400000D06CE01CA92CA85CF006FE002800D0A8
:100B50009DE00CA92CA85CF0E5FD002800D088E001
:100B6000402269680CA885F0BFFD002800D072E023
:100B700040221CA90CA885F0B7FD00285DD10134E6
:100B80001035032CD6D1802292ABD20018700130E0
:100B900001339042FAD1642402E0013C002C2FD0B2
:100BA000802292A9D2002CA85CF0A6FB0028F4D0E9
:100BB00040424005420D030C9B1A9B009B189A0073
:100BC0009B189C001C19484B64019C466442644479
:100BD0002CA85CF0BFFD2000444B9D4430BD40423A
:100BE0004005420D030C9B1A9B009B189A009B1812
:100BF0009C001C193E4B64019C4664426444EAE735
:100C00000CA92CA85CF08EFD00284ED14022394959
:100C10000CA885F069FD041EDAD0374CD8E76001D6
:100C2000001B800000198300C018344B84009C46D0
:100C30000419640164426444CAE763011B1B9B00FE
:100C400018198300C0182E4B84009C4604196401B7
:100C500064426444BCE763011B1B9B0018198300BA
:100C6000C018284B84009C46041964016442644403
:100C7000AEE76001001B800000198300C018224B02
:100C800084009C460419640164426444A0E7600146
:100C9000001B800000198300C0181C4B84009C4678
:100CA000041964016442644492E743425B055A0DAF
:100CB0001B0C9B1A9B009B189A009B189C001C19EC
:100CC000134B64019C466442644481E7B4F9FFFF1E
:100CD000F48B081028DE0810847708108479081037
:100CE000A8770810C8790810F1EFFFDF4C06000064
:100CF00016F0FFDF0C7A0810EBEFFFFF10F0FF9FFC
:100D000005F0FF9F07F0FF9F0AF0FF9F0DF0FF9F88
:100D1000EDEFFFDF70B5050088B020220E006846B9
:100D2000002112F0E7F820226946280052F02CF941
:100D3000002817D16B4608AC1A78013351424A415A
:100D40008018A342F8D11F2804DD184C3419200064
:100D500008B070BD6946280052F08EFC041E03D016
:100D6000134CF3E7134CF1E720226946002052F0C0
:100D70000BF9AD3001D0104CE8E72022002128000B
:100D800052F002F9AD3001D00C4CDFE7694600208B
:100D900052F072FCAD3001D0094CD7E70021280099
:100DA00052F06AFCAD30D2D0064CCFE7807BE1FF39
:100DB0004039D2FFC0BDF0FF00F7C2FFC0B4B3FF9F
:100DC0008072A4FF403095FF032330B50025D14C3D
:100DD000A5440A93FE33FF330B930C93013BFF3B77
:100DE0000D930E930EAB069350AB05930DAB04938E
:100DF00010AB03930CAB0293FFAB443301930BABEB
:100E00000093040090AB00200AAA09A90F9557F09F
:100E100035FC0300AD3312D040424005430D000CB9
:100E2000C01A8000C0188300C0188300C018BA4BD5
:100E300040019C4640426044B84B9D4430BD0EABDF
:100E4000069350AB05930DAB049310AB03930CAB1F
:100E50000293FFAB443301930BAB0093002190ABA3
:100E600020000AAA57F00AFC0300AD3310D0434219
:100E70005B055A0D180C801A800080188300C0187A
:100E80008300C018A64B40019C4640426044D3E713
:100E90000EAB069350AB05930DAB049310AB0393CD
:100EA0000CAB0293FFAB443301930BAB00220093D6
:100EB000200090AB09A957F0E1FB0200AD3210D041
:100EC00043425B055A0D1B0C9B1A9B009B189A0012
:100ED0009B1898001818934B40019C464042604470
:100EE000AAE70EAB069350AB05930DAB049310AB82
:100EF00003930CAB0293FFAB443301930BAB009312
:100F0000200000230AAA09A957F0B8FB0300AD335B
:100F100010D040424005420D030C9B1A9B009B18C9
:100F20009A009B18980018187F4B40019C4640423D
:100F3000604481E70EAB069350AB05930DAB049371
:100F400010AB03930CAB0293FFAB4433019320002F
:100F500090AB00950AAA09A957F090FB0300AD33A6
:100F600010D040424005420D030C9B1A9B009B1879
:100F70009A009B18980018186C4B40019C46404200
:100F8000604459E70EAB069350AB05930DAB049349
:100F900010AB03930CAB02930BAB0093200090AB10
:100FA00001950AAA09A957F069FB0300AD3310D0D7
:100FB00040424005420D030C9B1A9B009B189A006F
:100FC0009B18980018185A4B40019C4640426044B8
:100FD00032E70EAB069350AB05930DAB049310AB09
:100FE0000393FFAB443301930BAB0093200090AB12
:100FF00002950AAA09A957F041FB0300AD3308D0B6
:1010000043425B054B485B0D58434B4B9C46604449
:1010100012E70EAB069350AB05930DAB04930CABEC
:101020000293FFAB443301930BAB0093200090ABD2
:1010300003950AAA09A957F021FB0300AD3308D094
:1010400043425B053B485B0D58433C4B9C46604428
:10105000F2E60EAB069350AB059310AB03930CABCB
:101060000293FFAB443301930BAB0093200090AB92
:1010700004950AAA09A957F001FB0300AD3308D073
:1010800043425B052B485B0D58432D4B9C46604407
:10109000D2E60EAB06930DAB049310AB03930CABEF
:1010A0000293FFAB443301930BAB0093200090AB52
:1010B00005950AAA09A957F0E1FA0300AD3308D053
:1010C00043425B051B485B0D58431E4B9C466044E6
:1010D000B2E60023069350AB05930DAB049310AB1F
:1010E00003930CAB0293FFAB443301930BAB009320
:1010F000200090AB0AAA09A957F0C0FA0300AD334B
:1011000024D043425B050B485B0D58430E4B9C4675
:10111000604491E6BCF9FFFF5EC3FFDF44060000B8
:101120005BC3FFDF58C3FFDF55C3FFDF52C3FFDFE1
:101130004FC3FFDF6079FEFF4CC3FFDF49C3FFDF12
:1011400046C3FFDF43C3FFDF40C3FFDF0EAB0693A1
:1011500050AB05930DAB049310AB03930CAB029310
:10116000FFAB443301930FAD0BAB00932A0090AB60
:10117000200009A957F082FA0300833308D04342C4
:101180005B0553485B0D5843524B9C46604453E605
:101190000EAB069350AB05930DAB049310AB0393CA
:1011A0000CAB0293FFAB44330193200090AB00954E
:1011B0000AAA09A957F062FA0300833308D0434210
:1011C0005B0543485B0D5843434B9C46604433E604
:1011D0000EAB069350AB05930DAB049310AB03938A
:1011E000FFAB443301930BAB0093200090AB02950F
:1011F0000AAA09A957F042FA0300833308D04342F0
:101200005B0533485B0D5843344B9C46604413E602
:101210000EAB069350AB059310AB03930CAB02934C
:10122000FFAB443301930BAB0093200090AB0495CC
:101230000AAA09A957F022FA0300833308D04342CF
:101240005B0523485B0D5843254B9C466044F3E502
:1012500050AB05930DAB049310AB03930CAB02930F
:10126000FFAB443301930BAB0093200090AB06958A
:101270000AAA09A957F002FA0300833308D04342AF
:101280005B0513485B0D5843164B9C466044D3E501
:101290000EAB069350AB05930DAB049310AB0393C9
:1012A0000CAB0293FFAB443301930BAB00932000D4
:1012B00090AB0AAA09A957F0E1F9002800D1BBE5D3
:1012C0004342034A5B055B0D5343074A9818B3E555
:1012D0006079FEFF3CC3FFDF39C3FFDF35C3FFDFAB
:1012E00032C3FFDF2FC3FFDF2AC3FFDF70B58026C5
:1012F000714CB600A54403AB0093050084AB0020FD
:1013000002AA04A90296039657F076F90300AD33BA
:1013100014D040424005420D030C9B1A9B009B18C1
:101320009A009B189C001C19644B64019C46644203
:10133000644420008223DB009D4470BD03AB009316
:10134000002184AB280002AA57F056F90300AD3300
:1013500010D043425B055A0D1C0CA41AA400A4181B
:10136000A300E418A300E418554B64019C466442B2
:101370006444DEE703AB0093002284AB280004A999
:1013800057F03AF90300AD3310D043425B055A0DD4
:101390001B0C9B1A9B009B189A009B189C001C1905
:1013A000484B64019C4664426444C2E703AB00932B
:1013B0002800002302AA04A957F01EF90300AD3348
:1013C00010D040424005420D030C9B1A9B009B1815
:1013D0009A009B189C001C193B4B64019C4664427C
:1013E0006444A6E700232800009302AA84AB04A962
:1013F00057F002F90300AD3310D040424005420DD2
:10140000030C9B1A9B009B189A009B189C001C19AC
:101410002E4B64019C46644264448AE703AB00930C
:10142000280084AB02AA04A957F0E6F8041E10D0E5
:1014300044426405620D230C9B1A9B009B189A0082
:101440009B189C001C19224B64019C466442644416
:101450006FE703AB02900093280084AB02AA04A9B3
:1014600057F0CAF8030083330FD043425B055A0D8F
:101470001B0C9B1A9B009B189A009B189A009B18A8
:101480005B01144A5B429C1853E703AB00932800AE
:1014900084AB02AA04A90296039457F0ADF80300A6
:1014A000833300D145E743420B4C5B055B0D5C4346
:1014B0000A4B9C4664443CE7F0FBFFFFB9C3FFDFE7
:1014C000AFC3FFDFA5C3FFDF9BC3FFDF91C3FFDF18
:1014D0008EC3FFDF83C3FFDF6079FEFF77C3FFDFCB
:1014E000F0B5DE464E4645465746E0B5CE4C802622
:1014F000A5440400CD4811F0BBFC7600051E0496FF
:10150000059600D1ECE005AB019346AB00932100BA
:1015100004AB002006AA3AF015F80300AD331FD043
:1015200043425B055A0D1C0CA41AA400A418A30086
:10153000E418A300E418BE4B64019C466442644472
:10154000280039F047FE280011F0C8FC200087234E
:101550009B009D44F0BCBB46B246A946A046F0BDE8
:1015600005AB019346AB0093002104AB280006AA0B
:1015700039F0E8FF0300AD3310D043425B055A0D4C
:101580001C0CA41AA400A418A300E418A300E418D7
:10159000A84B64019C4664426444D1E705AB0193C7
:1015A00046AB0093002204AB2100280039F0CAFFAB
:1015B0000300AD3310D043425B055A0D1B0C9B1A40
:1015C0009B009B189A009B189C001C199A4B640165
:1015D0009C4664426444B3E705AB019346AB009379
:1015E00021000023280006AA39F0ACFF0300AD3328
:1015F00010D040424005420D030C9B1A9B009B18E3
:101600009A009B189C001C198C4B64019C466442F8
:10161000644495E7002705AB0193210004AB280043
:10162000009706AA39F08EFF0300AD3310D0404278
:101630004005420D030C9B1A9B009B189A009B18B7
:101640009C001C197E4B64019C466442644477E70D
:1016500046AB0093210004AB2800019706AA39F09D
:1016600071FF0300AD3310D040424005420D030C22
:101670009B1A9B009B189A009B189C001C19714B8D
:1016800064019C46644264445AE702220021280017
:10169000524239F057FD002808D043426A4C5B059E
:1016A0005B0D5C43694B9C46644449E7684B694F5A
:1016B0009A461D230293684B3200019300969B4685
:1016C0003900534628003AF00FFA061E0BD0434269
:1016D0005D4C5B055B0D5C43604B9C4664442FE7AF
:1016E0007D24644232E7280039F074FD0222310083
:1016F0002800524239F026FD002808D04342524CBF
:101700005B055B0D5C43564B9C46644418E71C2309
:10171000802699460293534B7600984601933200F7
:1017200053463900280000963AF0DEF9002808D028
:101730004342454C5B055B0D5C434B4B9C4664440C
:10174000FEE605AB019346AB00932100280004ABF5
:1017500006AA39F0F7FE002808D043423A4C5B0550
:101760005B0D5C43414B9C466444E9E61D23280025
:101770000093059A5B4646A939F03EFD041E08D049
:101780004342314C5B055B0D5C43394B9C466444E2
:10179000D6E6280039F01EFD022221002800524220
:1017A00039F0D0FC002808D04342274C5B055B0D84
:1017B0005C43304B9C466444C2E6534632003900D9
:1017C000280000963AF010FA002808D043421E4C38
:1017D0005B055B0D5C43284B9C466444B0E64B467E
:1017E00028000093059A434646A939F005FD0028D4
:1017F00008D04342144C5B055B0D5C431F4B9C4679
:1018000064449DE6049B28000093059A06AB46A914
:1018100039F0E8FD041E35D043420B4A5B055B0DF1
:101820005343174A9C188BE6E4FDFFFF2C09000088
:1018300015B7FFDF12B7FFDF0FB7FFDF0CB7FFDF12
:1018400009B7FFDF06B7FFDF6079FEFF02B7FFDFF2
:1018500050B3081050B4081030B30810FEB6FFDFC4
:10186000F8B6FFDF14B30810F4B6FFDFECB6FFDF05
:10187000E8B6FFDFE3B6FFDFDFB6FFDFDBB6FFDF93
:10188000D6B6FFDF8C226B46694652009B181B7848
:101890008A1801331370049B28000093059A06AB45
:1018A00046A939F09FFD0300783300D148E6434252
:1018B000034C5B055B0D5C43024B9C4664443FE676
:1018C0006079FEFFD0B6FFDFF0B50400E5B0A948AF
:1018D00011F0CEFA41220500A74910A811F010FB23
:1018E0004122A64921A811F00BFB4122A44932A8AC
:1018F00011F006FB002D00D139E102222026002143
:10190000524228003BF0BEFA200004AA08A904961F
:101910003CF098FA002818D043425B055A0D1C0C85
:10192000A41AA400A418A300E418A300E418954B7B
:1019300064019C466442644428003BF0D3FB2800C9
:1019400011F0CCFA200065B0F0BD82232100059390
:10195000606805AB43AA18313BF0FAFE002810D0AE
:1019600043425B055A0D1C0CA41AA400A418A30042
:10197000E418A300E418844B64019C466442644468
:10198000DAE7059B0499009543AA08A83CF076FB8A
:10199000002810D043425B055A0D1B0C9B1A9B007C
:1019A0009B189A009B189C001C19784B64019C465C
:1019B00064426444C0E728003BF094FB02220727FE
:1019C0000021524228003BF05DFA2800009732AB1C
:1019D00021AA10A93CF036FC002810D04042400556
:1019E000420D030C9B1A9B009B189A009B189C00AD
:1019F0001C19674B64019C46644264449CE72800C0
:101A00003BF070FB02220021280052423BF03AFAE0
:101A100060683AF02DFE00281ADB019000230022B6
:101A20000499009508A83CF0C5FA002821D040424E
:101A30004005420D030C9B1A9B009B189A009B18B3
:101A40009C001C19534B64019C466442644473E738
:101A500040424005420D030C9B1A9B009B189A00C4
:101A60009B189C001C194C4B64019C4664426444C6
:101A700062E728003BF036FB022200215242280098
:101A80003BF000FA07AB009320004BAB06AA43A93A
:101A9000079606963CF0FCF9002810D0404240051D
:101AA000420D030C9B1A9B009B189A009B189C00EC
:101AB0001C193A4B64019C46644264443CE7002391
:101AC000280000974BAA43A93CF0E4FB002810D063
:101AD00040424005420D030C9B1A9B009B189A0044
:101AE0009B189C001C192E4B64019C466442644464
:101AF00022E728003BF0F6FA022200215242280099
:101B00003BF0C0F904AB029308AB019307AB009321
:101B100020004BAB06AA43A90496079606963CF014
:101B2000EFF9002810D040424005420D030C9B1AEB
:101B30009B009B189A009B189C001C19194B640170
:101B40009C4664426444F7E60723280000934BAAAE
:101B500008AB43A93CF09EFB041E00D1ECE64342D7
:101B6000114A5B055B0D5343104A9C18E4E6104C88
:101B7000E8E6C0464C0C0000507A0810947A081031
:101B8000D87A08103998FFDF3398FFDF2D98FFDFF0
:101B90002498FFDF1398FFDF1B98FFDF0898FFDF13
:101BA0000098FFDFF397FFDF6079FEFFEB97FFDF21
:101BB0004198FFFFF0B5D6464F464646C0B50700F0
:101BC000CE20A2B080008A469046994611F050F986
:101BD000051E00D10DE1CE20800011F049F9061E4E
:101BE00000D101E11022002106A811F083F9302272
:101BF000002116A811F07EF9302200210AA811F068
:101C000079F902220021280052422CF09FFB002883
:101C10001CD044426405630D240CE41AA400E418AB
:101C2000A300E418A300E418774B64019C466442C7
:101C30002800644411F052F9300011F04FF92000EF
:101C400022B0E0BCBA46B146A846F0BD022200214F
:101C5000300052422CF07AFB002816D0404240055A
:101C6000430D040CE41AA400E418A300E418A30034
:101C7000E418664B64019C462800644264442CF0DE
:101C80006FFB280011F02AF9D6E71022390028004E
:101C90002BF0ECF9002819D040424005420D030C0E
:101CA0009B1A9B009B189A009B189C001C196401AE
:101CB000574B64429C46280064442CF051FB28009A
:101CC00011F00CF930002CF04BFBB5E72D9B424690
:101CD00005932C9B280004932F9B16A9039306AB16
:101CE00002930C230193534600934B462BF0FEF9CD
:101CF00000284BD12A9B002B06D018002B9A16A93E
:101D000084F0F2FC002867D12F9A2E9806A984F05F
:101D1000EBFC002858D11022390030002BF0A6F936
:101D200000280ED040424005420D030C9B1A9B0038
:101D30009B189A009B189C001C196401354B644247
:101D4000B8E72D9B300005932C9B16AA04932F9B7C
:101D50000AA9039306AB02930C2301935346009305
:101D60002B9B2BF01BFD041E1FD14346002B06D0DE
:101D70004A4640460AA984F0B7FC00283BD1280017
:101D80002CF0EEFA280011F0A9F89BE7404240053C
:101D9000420D030C9B1A9B009B189A009B189C00F9
:101DA0001C1964011C4B644284E744426405620DC3
:101DB000230C9B1A9B009B189A009B189C001C19D3
:101DC0006401164B644275E728002CF0C9FA28001C
:101DD00011F084F8124C75E728002CF0C1FA2800A5
:101DE00011F07CF80F4C6DE7280011F077F80E4CDD
:101DF00025E70E4C23E728002CF0B2FA280011F05A
:101E00006DF80B4C5EE7C04660D3FFDF5BD3FFDFAE
:101E100055D3FFDF3FD3FFDF4BD3FFDF37D3FFDFE8
:101E200045D3FFFF48D3FFFF69D3FFFF6BD3FFFF0D
:101E300034D3FFFFF0B5CE46474680B5D24CD34FE2
:101E4000A5440E0004000100150000203A0060F0D7
:101E50002BFA0300AD3316D040424005430D000C71
:101E6000C01A8000C0188300C0188300C018C84B77
:101E700040019C464042604489239B009D44C0BC75
:101E8000B946B046F0BD00222100022060F00CFAF5
:101E90000300AD3310D043425B055A0D180C801A75
:101EA000800080188300C0188300C018B94B40011F
:101EB0009C4640426044DFE707AB019308AB0093C8
:101EC0000022192302210620049503970294079605
:101ED00060F02EFC0300AD3310D040424005420DAF
:101EE000030C9B1A9B009B189A009B1898001818CB
:101EF000A94B40019C4640426044BDE7A74B0221EC
:101F0000984607AB019308AB009342460023062096
:101F100004950397029460F00BFC0300AD3310D0DE
:101F200040424005420D030C9B1A9B009B189A00EF
:101F30009B18980018189A4B40019C4640426044F8
:101F40009AE707AB0193002342460093994602218A
:101F50001933062004950397029460F0E9FB03000F
:101F6000AD3310D040424005420D030C9B1A9B003C
:101F70009B189A009B18980018188A4B40019C46A1
:101F80004042604478E74B46019308AB00934246D9
:101F900019230221062004950397029460F0C8FBE0
:101FA0000300AD3310D040424005420D030C9B1A94
:101FB0009B009B189A009B18980018187A4B4001B8
:101FC0009C464042604457E74B46029307AB01935F
:101FD00008AB00934246192302210620049503977B
:101FE00060F0A6FB0300AD3308D043425B056F48A9
:101FF0005B0D58436E4B9C4660443DE74B46039354
:1020000007AB019308AB0093424619230221062037
:102010000495029460F08CFB0300AD3308D043427A
:102020005B0562485B0D5843624B9C46604423E766
:102030004B46049307AB019308AB00934246192328
:10204000022106200397029460F072FB0300EC3338
:1020500008D043425B0555485B0D5843564B9C46A0
:10206000604409E74B46079307AB019308AB009325
:10207000424619230221062004950397029460F03A
:1020800057FB0300AD3308D043425B0547485B0D67
:1020900058434A4B9C466044EEE63C4F08AB0093E5
:1020A000002219230221062003970294019660F072
:1020B000AFF90300AD3308D043425B053B485B0DED
:1020C00058433F4B9C466044D6E608AB00934246DB
:1020D00000230221062003970294019660F098F9EC
:1020E0000300AD3308D043425B0530485B0D5843D5
:1020F000344B9C466044BFE6002342460093994619
:1021000002211933062003970294019660F080F9AA
:102110000300AD3308D043425B0524485B0D5843B0
:10212000294B9C466044A7E64B46019308AB0093BD
:1021300042461923022106200397029460F068F9B1
:102140000300AD3308D043425B0518485B0D58438C
:102150001E4B9C4660448FE64B46029308AB0093AF
:1021600042461923022106200397019660F050F998
:102170000300AD332ED043425B050C485B0D584342
:10218000134B9C46604477E6DCFDFFFF7C180000A3
:1021900008C3FFDF05C3FFDFFFC2FFDFA4B50810E0
:1021A000FBC2FFDFF7C2FFDFF3C2FFDF6079FEFF94
:1021B000EFC2FFDFEBC2FFDFCEC2FFDFC9C2FFDF2E
:1021C000C4C2FFDFC0C2FFDFBCC2FFDFB8C2FFDF97
:1021D000B4C2FFDF4B46039308AB0093424619237A
:1021E000022106200294019660F012F90300AD333B
:1021F00008D043425B0581485B0D5843804B9C46A9
:10220000604439E63A002100022060F04DF8864231
:1022100008D043425B0579485B0D5843794B9C4697
:10222000604429E63A002100032060F03DF8864230
:1022300008D043425B0571485B0D5843724B9C4686
:10224000604419E680224946920008A8079610F0DB
:1022500051FE07AB019308AB0093424619230221BC
:10226000062004950397029460F062FA002808D0D3
:1022700043425B0561485B0D5843644B9C46604498
:10228000FAE508AB00934246192302210620039782
:102290000294019660F0BCF8002808D043425B0528
:1022A00056485B0D58435A4B9C466044E4E58023F6
:1022B0009B009946574F079307AB019308AB0093D8
:1022C000424619230321062004950397029460F0E7
:1022D0002FFA002808D043425B0548485B0D58435D
:1022E0004D4B9C466044C7E508AB0093424619231A
:1022F0000321062003970294019660F089F80028D4
:1023000008D043425B053D485B0D5843434B9C4618
:102310006044B1E508AB0093424619230221062030
:1023200003970294019660F073F800281BD04B4687
:1023300007933B4B0221984607AB019308AB0093F0
:1023400042462023062004950397029460F0ECF89F
:1023500000280AD043425B0528485B0D5843314BA7
:102360009C46604488E5304886E508AB00934246C9
:102370002023022106200397029401965FF0B0FF0C
:10238000002808D043425B051C485B0D5843274B8F
:102390009C46604470E54B460793254B03219846C5
:1023A00007AB019308AB0093424633230620049504
:1023B0000397029460F0B8F8002808D043425B0508
:1023C0000E485B0D58431B4B9C46604454E508ABDC
:1023D000009342463323032106200397029401967B
:1023E0005FF07EFF002800D146E54342034A5B05CB
:1023F0005B0D5343104A98183EE5C0466079FEFFD6
:10240000B0C2FFDFA3C2FFDFA0C2FFDF98C2FFDFC1
:1024100093C2FFDF7C1800008DC2FFDF88C2FFDFA0
:1024200084B508107BC2FFDF82C2FFDF76C2FFDF08
:1024300050B5081070C2FFDF6BC2FFDFF0B5CE46AB
:10244000474680B50020A5B03DF0F8FC01AF06007E
:102450003C223800334910F053FD00236524984690
:10246000314B6442994619E03100280084F0E4FDC4
:10247000002835D0310010A884F0DEFD002831D0CE
:10248000280010A984F0D8FD00282DD1280084F060
:102490001FFE4F282AD8013C4C4529D020003DF092
:1024A000CDFC10A9050020003DF0D6FC43469B0062
:1024B000FB58A342D8D101239C4631002800E044B8
:1024C00084F0BAFD002829D1310010A884F0B4FDB1
:1024D0000028E0D0154825B0C0BCB946B046F0BDD4
:1024E0001348F8E71348F6E71348F4E71348F2E710
:1024F00020003DF0A3FC050010A920003DF0ACFC3D
:102500003100280084F098FD002809D1310010A87E
:1025100084F092FD0028DED00948DCE70948DAE7BC
:102520000948D8E76CDE0810D4FEFFFFEAF7FFFF8A
:10253000F7F7FFFFF5F7FFFFF3F7FFFFF1F7FFFFF7
:10254000E0F7FFFFECF7FFFFE2F7FFFFF0B5CE4645
:102550004746002380B5CBB04B22002117A8169325
:1025600003AC10F0C7FCD149422205A810F0C8FC0A
:1025700022008025CE4BCF4E03CB03C20821300072
:1025800001AB2AAA019536F049FF002814D0404239
:102590004005430D000CC01A8000C0188300C0180D
:1025A0008300C018C44B40019C46404260444BB07D
:1025B000C0BCB946B046F0BD0821C04801AB2AAA4C
:1025C000019536F02BFF002810D040424005430D06
:1025D000000CC01A8000C0188300C0188300C01807
:1025E000B74B40019C4640426044E0E7422305AAC5
:1025F00001934221100001AB36F010FF00281CD1DE
:10260000019B302B7CD10B21AE4801AB2AAA01954E
:1026100036F004FF071E21D040424005420D030C56
:102620009B1A9B009B189A009B1898001818A64BA1
:1026300040019C4640426044B9E740424005420D9B
:10264000030C9B1A9B009B189A009B189800181863
:102650009E4B40019C4640426044A8E7012308216C
:102660000193300001AB2AAA36F0D8FE0300AD3347
:1026700010D043425B055A0D1B0C9B1A9B009B1804
:102680009A009B1898001818914B40019C464042B4
:1026900060448CE72AAA08218E4801AB019536F0E8
:1026A000BDFE02009A3210D043425B055A0D1B0C4E
:1026B0009B1A9B009B189A009B1898001818864B31
:1026C00040019C464042604471E701AB05218348CC
:1026D0002AAA019536F0A2FE03009A3312D0404296
:1026E0004005420D030C9B1A9B009B189A009B18F7
:1026F000980018187A4B40019C464042604456E7C7
:10270000784854E7784B0025984680239946774EC1
:102710004B4604210193404601AB2AAA36F07EFEC7
:102720009A3053D10421300001AB2AAA36F076FE4C
:102730009A3051D101239C460135E0440136042DE5
:10274000E6D18026033D02E001352B2D17D008216C
:10275000200001AB2AAA0196257036F05FFE9A3060
:10276000F2D06B015B1B9B005B199A009B189800D1
:1027700018185F4B40019C464042604417E75D4E8D
:102780005535F35D08212370200001AB2AAA01957D
:1027900036F044FE9A3025D10137102FF1D17B2538
:1027A0008026F03702E00135BD4221D0082120000B
:1027B00001AB2AAA0196257036F030FE9A30F2D08D
:1027C0004D4B4E489C4668436044F0E64C4B4B48AA
:1027D0009C4668436044EAE64A4B48489C46684346
:1027E0006044E4E6484B45489C4678436044DEE656
:1027F00003236A4602930521444802AB36F00EFEDD
:10280000021E08D043425B053C485B0D5843404BD9
:102810009C466044CBE601AB68460299019636F0CF
:1028200069FF0300CA3308D043425B0533485B0DA0
:102830005843384B9C466044B9E66846029901AB60
:102840002AAA019636F056FF041E08D043425B05C3
:102850002A485B0D5843304B9C466044A7E607234B
:1028600068460193029901AB2AAA37F085F8030064
:10287000843308D043425B0520485B0D5843274B07
:102880009C46604493E601AB22006846029901969B
:1028900037F072F80300CA3344D043425B0517484F
:1028A0005B0D58431E4B9C46604480E61C7B081021
:1028B000A8DE081074C80810BAF7FFDF6CC808104B
:1028C000B6F7FFDF60C80810ACF7FFDFB2F7FFDF35
:1028D000A6F7FFDF58C80810A1F7FFDF50C808109F
:1028E0009DF7FFDFB0F7FFFF44C8081038C8081095
:1028F0008CF7FF9F24C808107CF7FF9F6079FEFFCC
:1029000097F7FF9F94F7FF9F84F7FF9F1CC808105D
:1029100073F7FFDF6FF7FFDF6BF7FFDF67F7FFDFAF
:1029200063F7FFDF6846029901AB2AAA019637F0E8
:1029300023F8002808D043425B0528485B0D584324
:10294000274B9C46604432E66846029901AB2AAAAE
:10295000019637F033FA002808D043425B051F4840
:102960005B0D58431F4B9C46604420E64F2101AB52
:102970002AAA16A80196029136F0BCFE002808D0BB
:1029800043425B0515485B0D5843174B9C4660441A
:102990000DE68024029901AB2AAA16A8019436F00C
:1029A000EBFF002808D043425B050C485B0D584301
:1029B0000E4B9C466044FAE5029901AB2AAA16A880
:1029C000019437F0FBF9002800D1F0E54342034AB7
:1029D0005B055B0D5343064A9818E8E56079FEFFF6
:1029E0005FF7FFDF5BF7FFDF54F7FFDF50F7FFDF35
:1029F0004CF7FFDF00B593B004AB00930F230F211A
:102A000045486B4405AA2EF0DDFD002811D0404258
:102A10004005430D000CC01A8000C0188300C01888
:102A20008300C0183D4B40019C464042604413B0B7
:102A300000BD082100202EF099FD0300AD3310D019
:102A400040424005430D000CC01A8000C0188300AE
:102A5000C0188300C018324B40019C46404260447D
:102A6000E5E7002106A82EF081FD0300843310D095
:102A700040424005420D030C9B1A9B009B189A0094
:102A80009B1898001818274B40019C464042604410
:102A9000CDE700220023082106A8069207932EF016
:102AA00065FD00281DD1069B079A13432AD06B466B
:102AB0000499DA7B059809AB2EF0EEFD0028B6D01C
:102AC00040424005420D030C9B1A9B009B189A0044
:102AD0009B1898001818144B40019C4640426044D3
:102AE000A5E740424005420D030C9B1A9B009B1832
:102AF0009A009B18980018180C4B40019C464042C5
:102B0000604494E70A4810F0C9FA0A4B1B689868B9
:102B100083F0A6FC08488AE70CC808100DF7FFDF11
:102B200008F7FFDF06F7FFDFF9F6FFDF02F7FFDF49
:102B3000607B08105C160020FEF6FFFF30B5954C58
:102B4000954BA5440A93954B02220B9300230C93BB
:102B5000934B00210E93934B52420F9303231093F8
:102B6000914B1EA81293914B139338231493904BBF
:102B70001693904B1793402318938F4B1A938F4BB8
:102B80001B9380231C9356F05BFF002813D0404218
:102B90004005420D030C9B1A9B009B189A009B1842
:102BA0009C001C19864B64019C46644264442000CE
:102BB000844B9D4430BD02220021524237A856F07A
:102BC0003FFF0AAD041E5DD1AA6829681EA856F011
:102BD00057FF002800D094E005A91EA857F052F92D
:102BE000002872D137A91EA857F06CF900287AD1B5
:102BF00069461EA857F046F8002800D08FE037A895
:102C000057F03EF914226846696883F06DFD00288C
:102C100000D092E01422684605A983F065FD0028E3
:102C200000D098E001341035052CCDD1802250AB76
:102C3000D2001870013001339042FAD1642402E0CE
:102C4000013C002C32D0802250A9D2001EA856F0A0
:102C500017FF0028F4D040424005420D030C9B1A98
:102C60009B009B189A009B189C001C19564B6401F2
:102C70009C46644264441EA857F002F937A857F0F6
:102C8000FFF894E71EA857F0FBF860424005420D9C
:102C9000030C9B1A9B009B189A009B189C001C1904
:102CA0004A4B64019C466442644480E769461EA81E
:102CB00056F0E8FF00285CD114226846444983F0AE
:102CC00013FD041ED7D0434CD5E76001001B8000E4
:102CD00000198300C018404B84009C46041964010D
:102CE00064426444C7E76001001B80000019830050
:102CF000C0183A4B84009C46041964016442644441
:102D0000B9E76001001B800000198300C018344B34
:102D100084009C460419640164426444ABE760018A
:102D2000001B800000198300C0182E4B84009C46B5
:102D300004196401644264449DE763011B1B9B000A
:102D400018198300C018284B84009C46041964019C
:102D5000644264448FE763011B1B9B0018198300C6
:102D6000C018224B84009C460419640164426444E8
:102D700081E743425B055A0D1B0C9B1A9B009B1875
:102D80009A009B189C001C19194B64019C466442D4
:102D9000644470E7BCFAFFFFF48B0810747B0810E2
:102DA000847708108C7B0810A8770810A47B081083
:102DB000FC7B0810B0DE0810BC7B0810407C0810BB
:102DC00096F5FFDF440500005CF5FFDF92F5FFDFBD
:102DD000587C081056F5FFFF88F5FF9F85F5FF9F8B
:102DE0008BF5FF9F82F5FF9F7EF5FF9F7CF5FF9F90
:102DF00058F5FFDF30B58F4C8F4BA54410938F4BA8
:102E000002221193002312938D4B002114938D4BBA
:102E100052421593032316938B4B1CA818938B4B8C
:102E2000199338231A9357F067FB002813D04042B8
:102E30004005420D030C9B1A9B009B189A009B189F
:102E40009C001C19824B64019C466442644420002F
:102E5000804B9D4430BD02220021524238A857F0D9
:102E60004BFB10AD041E5DD1AA6829681CA857F061
:102E70006FFB002800D094E008A91CA857F086FD3D
:102E8000002872D138A91CA857F0AAFD00287AD1D1
:102E900069461CA857F050FC002800D08FE038A8E5
:102EA00057F068FD20226846696883F01DFC002801
:102EB00000D092E02022684608A983F015FC002883
:102EC00000D098E001341035032CCDD1802254ABD2
:102ED000D2001870013001339042FAD1642402E02C
:102EE000013C002C32D0802254A9D2001CA857F0FB
:102EF0002FFB0028F4D040424005420D030C9B1AE2
:102F00009B009B189A009B189C001C19524B640153
:102F10009C46644264441CA857F02CFD38A857F026
:102F200029FD94E71CA857F025FD60424005420D9D
:102F3000030C9B1A9B009B189A009B189C001C1961
:102F4000464B64019C466442644480E769461CA881
:102F500057F0F2FB00285CD120226846404983F0FC
:102F6000C3FB041ED7D03F4CD5E76001001B800097
:102F700000198300C0183C4B84009C46041964016E
:102F800064426444C7E76001001B800000198300AD
:102F9000C018364B84009C460419640164426444A2
:102FA000B9E76001001B800000198300C018304B96
:102FB00084009C460419640164426444ABE76001E8
:102FC000001B800000198300C0182A4B84009C4617
:102FD00004196401644264449DE763011B1B9B0068
:102FE00018198300C018244B84009C4604196401FE
:102FF000644264448FE763011B1B9B001819830024
:10300000C0181E4B84009C46041964016442644449
:1030100081E743425B055A0D1B0C9B1A9B009B18D2
:103020009A009B189C001C19154B64019C46644235
:10303000644470E7ACFAFFFFF48B0810707C081052
:1030400084770810C8DE0810A8770810947C081050
:103050000DF4FFDF54050000D4F3FFDF09F4FFDFB8
:10306000B87C0810CEF3FFFFFEF3FF9FFBF3FF9F3A
:1030700002F4FF9FF8F3FF9FF4F3FF9FF2F3FF9F2B
:10308000D0F3FFDFF0B5A64CA64BA5440093A64BAA
:103090000222019300230293A44B00210493A44B2A
:1030A0005242059303230693A24B2CA80893A24BEC
:1030B000099370230A935CF08BFC002813D04042E4
:1030C0004005420D030C9B1A9B009B189A009B180D
:1030D0009C001C19994B64019C4664426444200086
:1030E000974B9D44F0BD02220021524264A85CF03F
:1030F0006FFC6D46041E5FD1AA6829682CA85CF09D
:1031000069FD002800D0BFE01CA92CA85DF05CFC84
:10311000002800D09CE064A92CA85DF01DFE0028CA
:1031200000D0A3E00CA92CA85CF00AFF002800D076
:10313000B8E064A85DF052F9402269680CA883F0F9
:10314000D3FA002800D0BBE040221CA90CA883F0D1
:10315000CBFA002800D0C1E001341035032CCBD1CC
:1031600080229CABD2001870013001339042FAD11A
:10317000642402E0013C002C32D080229CA9D200C1
:103180002CA85CF027FD0028F4D040424005420DF9
:10319000030C9B1A9B009B189A009B189C001C19FF
:1031A000684B64019C46644264442CA85DF016F9A7
:1031B00064A85DF013F992E72CA85DF00FF9604266
:1031C0004005420D030C9B1A9B009B189A009B180C
:1031D0009C001C195C4B64019C46644264447EE77D
:1031E0000CA92CA85CF0ACFE002800D084E04022A2
:1031F00056490CA883F078FA002800D08DE080238F
:10320000DB009C46FC279CAD514E6544BF0007E0A7
:103210000CA92CA85CF094FE013E0400BE42C4D070
:103220003200A91B2CA85CF0D5FC0028F0D040424D
:103230004005420D030C9B1A9B009B189A009B189B
:103240009C001C19434B64019C4664426444ACE7F7
:103250006001001B800000198300C0183E4B8400F1
:103260009C4604196401644264449EE76001001BAB
:10327000800000198300C018384B84009C46041954
:1032800064016442644490E76001001B80000019FF
:103290008300C018324B84009C46041964016442C8
:1032A000644482E76001001B800000198300C0189D
:1032B0002C4B84009C46041964016442644474E706
:1032C00063011B1B9B0018198300C018264B840048
:1032D0009C46041964016442644466E763011B1B55
:1032E0009B0018198300C018204B84009C460419C9
:1032F00064016442644458E743425B055A0D1B0C69
:103300009B1A9B009B189A009B189C001C19184B39
:1033100064019C466442644447E7164C45E7C04656
:103320008CF9FFFFF48B0810DC7C08108477081000
:10333000207D0810647D0810ECDE08108FF3FFDF9D
:103340007406000055F3FFDF8BF3FFDFD87D081014
:10335000FF03000047F3FFDF81F3FF9F7EF3FF9F32
:1033600084F3FF9F7BF3FF9F77F3FF9F75F3FF9F2E
:1033700051F3FFDF4FF3FFFFF0B5A64CA64BA5447A
:103380000E93A64B02220F9300231093A44B00210F
:103390001293A44B5242139303231493A24B1AA8E3
:1033A0001693A24B1793702318935CF067FB0028C9
:1033B00013D040424005420D030C9B1A9B009B1802
:1033C0009A009B189C001C19994B64019C4664420E
:1033D00064442000974B9D44F0BD022200215242DC
:1033E00052A85CF04BFB0EAD041E5FD1AA682968A1
:1033F0001AA85DF017FD002800D0BFE007A91AA8A1
:103400005DF042FF002800D09CE052A91AA85EF0AF
:1034100003F9002800D0A3E069461AA85DF030FD4A
:10342000002800D0B8E052A85DF022FF1C226846B8
:10343000696883F059F9002800D0BBE01C22684677
:1034400007A983F051F9002800D0C1E001341035FC
:10345000032CCBD180228AABD2001870013001330B
:103460009042FAD1642402E0013C002C32D0802248
:103470008AA9D2001AA85DF0D5FC0028F4D04042F9
:103480004005420D030C9B1A9B009B189A009B1849
:103490009C001C19684B64019C46644264441AA851
:1034A0005DF0E6FE52A85DF0E3FE92E71AA85DF03B
:1034B000DFFE60424005420D030C9B1A9B009B18E7
:1034C0009A009B189C001C195C4B64019C4664424A
:1034D00064447EE769461AA85DF0D2FC002800D05B
:1034E00084E01C226846564983F0FEF8002800D08C
:1034F0008DE08023DB009C46FC278AAD514E65445D
:10350000BF0007E069461AA85DF0BAFC013E04005E
:10351000BE42C4D03200A91B1AA85DF083FC00286B
:10352000F0D040424005420D030C9B1A9B009B18B3
:103530009A009B189C001C19434B64019C466442F2
:103540006444ACE76001001B800000198300C018D0
:103550003E4B84009C4604196401644264449EE727
:103560006001001B800000198300C018384B8400E4
:103570009C46041964016442644490E76001001BA6
:10358000800000198300C018324B84009C46041947
:1035900064016442644482E76001001B80000019FA
:1035A0008300C0182C4B84009C46041964016442BB
:1035B000644474E763011B1B9B0018198300C01847
:1035C000264B84009C46041964016442644466E707
:1035D00063011B1B9B0018198300C018204B84003B
:1035E0009C46041964016442644458E743425B0505
:1035F0005A0D1B0C9B1A9B009B189A009B189C0051
:103600001C19184B64019C466442644447E7164CFD
:1036100045E7C046D4F9FFFFF48B08101C7E081064
:10362000847708103C7E0810647D08105C7E0810CA
:10363000FCF2FFDF2C060000C0F2FFDFF8F2FFDF34
:103640007C7E0810FF030000B2F2FFDFEEF2FF9F66
:10365000EBF2FF9FF1F2FF9FE8F2FF9FE4F2FF9F82
:10366000E0F2FF9FBCF2FFDFBAF2FFFFF0B5A64C1D
:10367000A64BA5441093A64B02221193002312934C
:10368000A44B00211493A44B524215930323169389
:10369000A24B1CA81893A24B199370231A935CF0A9
:1036A00043FA002813D040424005420D030C9B1AF8
:1036B0009B009B189A009B189C001C19994B640155
:1036C0009C46644264442000974B9D44F0BD022216
:1036D0000021524254A85CF027FA10AD041E5FD1BD
:1036E000AA6829681CA85DF0FDFF002800D0BFE093
:1036F00008A91CA85EF028FA002800D09CE054A974
:103700001CA85EF0E9FB002800D0A3E069461CA8D5
:103710005EF016F8002800D0B8E054A85EF008FA71
:1037200020226846696882F0DFFF002800D0BBE0F5
:103730002022684608A982F0D7FF002800D0C1E007
:1037400001341035032CCBD180228CABD200187001
:10375000013001339042FAD1642402E0013C002C94
:1037600032D080228CA9D2001CA85DF0BBFF0028BB
:10377000F4D040424005420D030C9B1A9B009B185D
:103780009A009B189C001C19684B64019C4664427B
:1037900064441CA85EF0CCF954A85EF0C9F992E725
:1037A0001CA85EF0C5F960424005420D030C9B1A4F
:1037B0009B009B189A009B189C001C195C4B640191
:1037C0009C46644264447EE769461CA85DF0B8FFED
:1037D000002800D084E020226846564982F084FF09
:1037E000002800D08DE08023DB009C46FC278CADB8
:1037F000514E6544BF0007E069461CA85DF0A0FF7C
:10380000013E0400BE42C4D03200A91B1CA85DF0DA
:1038100069FF0028F0D040424005420D030C9B1A7E
:103820009B009B189A009B189C001C19434B640139
:103830009C4664426444ACE76001001B80000019B0
:103840008300C0183E4B84009C4604196401644206
:1038500064449EE76001001B800000198300C018CB
:10386000384B84009C46041964016442644490E728
:103870006001001B800000198300C018324B8400D7
:103880009C46041964016442644482E76001001BA1
:10389000800000198300C0182C4B84009C4604193A
:1038A00064016442644474E763011B1B9B001819A4
:1038B0008300C018264B84009C46041964016442AE
:1038C000644466E763011B1B9B0018198300C01842
:1038D000204B84009C46041964016442644458E708
:1038E00043425B055A0D1B0C9B1A9B009B189A00C8
:1038F0009B189C001C19184B64019C46644264444C
:1039000047E7164C45E7C046CCF9FFFFF48B08109B
:103910009C7E081084770810C07E0810647D081013
:10392000E47E081064F2FFDF3406000028F2FFDFB7
:1039300060F2FFDF087F0810FF0300001AF2FFDFCC
:1039400056F2FF9F53F2FF9F59F2FF9F50F2FF9FE5
:103950004CF2FF9F48F2FF9F24F2FFDF22F2FFFFAD
:1039600030B58F4C8F4BA54418938F4B022219937F
:1039700000231A938D4B00211C938D4B52421D93B3
:1039800003231E938B4B24A820938B4B21937023EE
:1039900022935CF061FF002813D040424005420DA5
:1039A000030C9B1A9B009B189A009B189C001C19E7
:1039B000824B64019C46644264442000804B9D44D9
:1039C00030BD0222002152425CA85CF045FF18ADD8
:1039D000041E5DD1AA68296824A85CF00BFD0028AC
:1039E00000D094E00CA924A85EF086FA002872D1D9
:1039F0005CA924A85EF048FC00287AD1694624A876
:103A00005CF032FD002800D08FE05CA85CF0D0FFB5
:103A100030226846696882F067FE002800D092E094
:103A2000302268460CA982F05FFE002800D098E0A2
:103A300001341035032CCDD1802294ABD200187004
:103A4000013001339042FAD1642402E0013C002CA1
:103A500032D0802294A9D20024A85CF0CBFC0028AC
:103A6000F4D040424005420D030C9B1A9B009B186A
:103A70009A009B189C001C19524B64019C4664429E
:103A8000644424A85CF094FF5CA85CF091FF94E788
:103A900024A85CF08DFF60424005420D030C9B1A88
:103AA0009B009B189A009B189C001C19464B6401B4
:103AB0009C466442644480E7694624A85CF0D4FCD8
:103AC00000285CD130226846404982F00DFE041E79
:103AD000D7D03F4CD5E76001001B80000019830060
:103AE000C0183C4B84009C46041964016442644441
:103AF000C7E76001001B800000198300C018364B27
:103B000084009C460419640164426444B9E760017E
:103B1000001B800000198300C018304B84009C46B5
:103B20000419640164426444ABE76001001B800037
:103B300000198300C0182A4B84009C4604196401B4
:103B4000644264449DE763011B1B9B0018198300BA
:103B5000C018244B84009C460419640164426444E8
:103B60008FE763011B1B9B0018198300C0181E4BB5
:103B700084009C46041964016442644481E7434222
:103B80005B055A0D1B0C9B1A9B009B189A009B18F7
:103B90009C001C19154B64019C466442644470E708
:103BA000ACF9FFFFF48B08102C7F08108477081005
:103BB00030DF0810647D0810607F0810DCF1FFDF43
:103BC00054060000A4F1FFDFD8F1FFDF947F081056
:103BD0009EF1FFFFCEF1FF9FCBF1FF9FD1F1FF9F41
:103BE000C8F1FF9FC4F1FF9FC2F1FF9FA0F1FFDF6B
:103BF000F0B5DE4657464E464546E0B5D54CD64B69
:103C0000A54400939A46D54B002201937223029259
:103C10000393D34B032204939946D24BD24F05937F
:103C2000722306920793D14B382208939846D04BC3
:103C30000021099372230A920B93CE4B20220D93FD
:103C400088230E920F93CC4B202210939B46CB4B94
:103C5000BCA81193FA2312921393223A0C9759F0AD
:103C600091FD6E46051E55D1B2683168BCA859F069
:103C70009DFD002800D0E3E0F46829A92200BCA83B
:103C800059F0A6FD002800D0FCE02200716829A8A8
:103C900082F02AFD041E00D0E3E001351036052D28
:103CA000E2D18020C0000FF0E3F8051E00D19DE1B5
:103CB0008023DB002C5501349C42FBD1642402E0BC
:103CC000013C002C37D080222900D200BCA859F03A
:103CD0006DFD0028F4D040424005420D030C9B1AB4
:103CE0009B009B189A009B189C001C19A44B640114
:103CF0009C466442BCA8644459F0A8FD28000FF01B
:103D0000EDF820009F4B9D44F0BCBB46B246A9464F
:103D1000A046F0BD40424005420D030C9B1A9B009B
:103D20009B189A009B189C001C19974B64019C4699
:103D300064426444E5E7FA2229A9BCA859F048FD89
:103D4000002800D0AFE07222904929A882F0CCFC74
:103D5000041E00D0BBE0534614938D4B00221593F4
:103D6000A823169217934B4618938A4B0322199354
:103D7000A8231A921B9343461C93874B38221D930A
:103D8000A8231E921F93854B20222193A8232292C1
:103D900023935B462493824B20222593A8235B0028
:103DA00026922793209714AE022200215242BCA8EB
:103DB00059F0E8FC002800D0BEE0B2683168BCA829
:103DC00059F01CFD002800D023E1F768A821380035
:103DD0000EF092FC68A90200BCA859F023FD00284F
:103DE00000D008E13A00716868A882F07DFC071EE7
:103DF00000D01CE101341036052CD5D18023DB0026
:103E0000EF5501379F42FBD1022200215242BCA84C
:103E100059F0B8FC00285FD043425B055A0D1B0CDB
:103E20009B1A9B009B189A009B189C001C195D4BC9
:103E300064019C4664426444BCA859F007FD5DE7F8
:103E40006801401B800040198300C018564B840055
:103E50009C46041964016442BCA8644459F0F6FC11
:103E60004FE76801401B800040198300C0184F4B8A
:103E700084009C46041964016442BCA8644459F05F
:103E8000E5FC3EE76801401B800040198300C01834
:103E9000474B84009C46041964016442BCA86444F6
:103EA00059F0D4FC2DE743425B055A0D1B0C9B1ABD
:103EB0009B009B189A009B189C001C193D4B6401A9
:103EC0009C466442BCA8644459F0C0FC16E7BCA8F8
:103ED00059F0BCFC384C11E73A002900BCA859F055
:103EE0008DFC002810D043425B055A0D1B0C9B1A19
:103EF0009B009B189A009B189C001C192F4B640177
:103F00009C466442644497E7012268A9BCA859F022
:103F100089FC002858D043425B055A0D1B0C9B1AA4
:103F20009B009B189A009B189C001C19244B640151
:103F30009C46644264447FE763011B1B9B001B1982
:103F40009A009B189C001C191E4B64019C466442FD
:103F5000644471E774FBFFFFF48B081064DF081002
:103F600084770810C87F08103C800810A8770810D4
:103F7000D8DF08104CE0081060800810848008101A
:103F800079EEFFDF8C04000099EEFFDF98C7081080
:103F9000D8E008108081081084E1081030E2081091
:103FA0002C82081022EFFFDF93EEFF9F8DEEFF9F24
:103FB00090EEFF9F75EEFFDF73EEFFFF1DEFFFDF5B
:103FC00019EFFFDF37EFFF9F012268A9BCA859F066
:103FD00029FC002839D1A8222049520068A882F083
:103FE00083FB041E00D127E71D4C25E7BCA859F030
:103FF0002DFC1C4C85E663011B1B9B001B199A00C2
:104000009B189C001C19184B64019C466442644434
:1040100012E763011B1B9B001B199A009B189C0055
:104020001C19124B64019C466442644404E763011A
:104030001B1B9B001B199A009B189C001C190C4B06
:1040400064019C4664426444F6E64342094C5B05C5
:104050005B0D5C43084B9C466444EDE644C6081087
:1040600013EFFFFF86EEFFFF2FEFFF9F33EFFF9F62
:104070002CEFFF9F6079FEFF15EFFFDFF0B5DE4606
:1040800057464E464546E0B5D64CD74BA54402931D
:104090009B46D64B00220393722304920593D44B84
:1040A000032206939A46D34BD34F07937223089269
:1040B0000993D24B38220A939946D14B00210B9396
:1040C00072230C920D93CF4B20220E939846882397
:1040D00010921193CC4B202201931293CB4BAEA89C
:1040E0001393FA2314921593223A0F9759F0C2FBB7
:1040F00002AD061E55D1AA682968AEA859F0CEFBBC
:10410000002800D0E3E0EC682BA92200AEA859F00B
:10411000D7FB002800D0FCE0220069682BA882F0C1
:10412000E3FA041E00D0E3E001361035052EE2D19B
:104130008020C0000EF09CFE051E00D19CE1802373
:10414000DB002C5501349C42FBD1642402E0013C8D
:10415000002C37D080222900D200AEA859F09EFB57
:104160000028F4D040424005420D030C9B1A9B00EE
:104170009B189A009B189C001C19A54B64019C4637
:104180006442AEA8644459F0DDFB28000EF0A6FEA0
:104190002000A04B9D44F0BCBB46B246A946A046B9
:1041A000F0BD43425B055A0D1B0C9B1A9B009B18EC
:1041B0009A009B189C001C19974B64019C46644212
:1041C0006444E5E7FA222BA9AEA859F079FB002850
:1041D00000D0AFE0722291492BA882F085FA041E2C
:1041E00000D0BBE05B4616938D4B002217938823CB
:1041F0001892199353461A938A4B03221B938823D0
:104200001C921D934B461E93874B38221F93882385
:10421000209221934346202222938823249225939F
:10422000019B20222693814B2397279388235B00B1
:104230002892299316AE022200215242AEA859F0CC
:1042400019FB002800D0BEE0B2683168AEA859F072
:1042500051FB002800D022E1F768882138000EF0D9
:104260004BFA6AA90200AEA859F058FB002800D00A
:1042700007E13A0071686AA882F036FA071E00D09A
:104280001BE101341036052CD5D18023DB00EF551E
:1042900001379F42FBD1022200215242AEA859F0C1
:1042A000E9FA00285FD043425B055A0D1B0C9B1AAC
:1042B0009B009B189A009B189C001C195C4B640186
:1042C0009C4664426444AEA859F03CFB5DE7730130
:1042D0009B1B9B009B199A009B189C001C19554B1B
:1042E00064019C466442AEA8644459F02BFB4FE73E
:1042F00073019B1B9B009B199A009B189C001C1927
:104300004D4B64019C466442AEA8644459F01AFBCC
:104310003EE773019B1B9B009B199A009B189C0016
:104320001C19464B64019C466442AEA8644459F093
:1043300009FB2DE743425B055A0D1B0C9B1A9B00A2
:104340009B189A009B189C001C193D4B64019C46CD
:104350006442AEA8644459F0F5FA16E7AEA859F0E5
:10436000F1FA384C11E73A002900AEA859F0C2FA28
:10437000002810D043425B055A0D1B0C9B1A9B0072
:104380009B189A009B189C001C192F4B64019C469B
:104390006442644497E701226AA9AEA859F0BEFAC4
:1043A000002857D043425B055A0D1B0C9B1A9B00FB
:1043B0009B189A009B189C001C19244B64019C4676
:1043C000644264447FE763011B1B9B001B199A0036
:1043D0009B189C001C191E4B64019C46644264445B
:1043E00071E7C046ACFBFFFFF48B0810DCE208105D
:1043F000847708108083081050E30810A87708100D
:10440000F48308103C80081060800810688408104D
:1044100027EDFFDF5404000047EDFFDF648508103F
:10442000DCE30810D885081064860810F0860810B0
:10443000CEEDFFDF41EDFF9F3BEDFF9F3EEDFF9F88
:1044400023EDFFDF21EDFFFFC9EDFFDFC5EDFFDF4E
:10445000E3EDFF9F01226AA9AEA859F05FFA002898
:1044600039D18822204952006AA882F03DF9041E01
:1044700000D128E71D4C26E7AEA859F063FA1C4C82
:1044800086E663011B1B9B001B199A009B189C006E
:104490001C19184B64019C466442644413E7630191
:1044A0001B1B9B001B199A009B189C001C19124B8C
:1044B00064019C466442644405E763011B1B9B0046
:1044C0001B199A009B189C001C190C4B64019C46FC
:1044D00064426444F7E64342094C5B055B0D5C4370
:1044E000084B9C466444EEE630C50810BFEDFFFF64
:1044F00034EDFFFFDBEDFF9FDFEDFF9FD8EDFF9F6A
:104500006079FEFFC1EDFFDFF0B54546DE46574658
:104510004E46E0B5BC4CBD4BA54408AC220023CBB5
:1045200023C223CB23C223CB23C21B6805AD136058
:104530002A00B74B03CB03C21B88062113806A46AF
:10454000B44B0020138100239372B34B0393B34BFE
:1045500004934BF01DFB0300AD3318D040424005DF
:10456000430D000CC01A8000C0188300C0188300DF
:10457000C018AB4B40019C464042604499239B00CD
:104580009D44F0BCBB46B246A946A046F0BD2823D8
:104590000022062100204BF04BFB0300AD3310D06E
:1045A00040424005430D000CC01A8000C018830033
:1045B000C0188300C0189B4B40019C464042604499
:1045C000DCE728230022062132A84BF031FB030050
:1045D000AD3310D040424005420D030C9B1A9B00A6
:1045E0009B189A009B18980018188F4B40019C4606
:1045F00040426044C2E728232200062100204BF0FD
:1046000017FB0300AD3310D040424005420D030CB0
:104610009B1A9B009B189A009B1898001818834BB4
:1046200040019C4640426044A8E700220621002049
:104630004BF036FB0300AD3310D040424005420D35
:10464000030C9B1A9B009B189A009B189800181843
:10465000774B40019C46404260448FE70022062190
:1046600032A84BF01DFB0300AD3310D04042400593
:10467000420D030C9B1A9B009B189A009B189800F4
:1046800018186C4B40019C464042604476E7062176
:10469000002012AA4BF004FB0300AD3308D04342C4
:1046A0005B0565485B0D5843644B9C46604465E779
:1046B00003AB9846002643461F7832A839004BF0DA
:1046C00067FAAD3000D00DE128232200390032A86E
:1046D0004BF0AEFAAD3000D0FEE0390012AA32A89D
:1046E0004BF0DEFAAD3000D0F0E0390032A84BF0EC
:1046F0000DFB01239C460136E044042EDBD1002350
:10470000AA4699461D00E83B9846534608211E7864
:104710006B464A465B189B5C00229346B34203D12A
:1047200001239C46C346E144310032A84BF030FAE5
:10473000834500D01CE128232200310032A84BF031
:1047400077FA834500D037E1310012AA32A84BF046
:10475000A7FA834500D029E1310032A84BF0D6FA00
:1047600030004BF059F85B460700002B6AD003007D
:10477000E83300D026E1009028222100300022AB4F
:104780004BF066F8E83000D094E030004BF052F87F
:10479000E83000D0C0E030004BF012F8E83000D034
:1047A0008EE040464BF01AF801239C460135E24466
:1047B0000A2DAAD104AB0025984640272826434657
:1047C0003200585D210012AB00974BF041F8030016
:1047D000AD3305D00300843302D0E83000D0A1E02F
:1047E0000135042DEBD101204AF0EAFF0300E83344
:1047F00000D17DE043425B050F485B0D5843104BF1
:104800009C466044BAE6C0469CFDFFFF0488081041
:1048100068E40810030500000009010201020E000F
:1048200030ECFFDF2DECFFDF2AECFFDF27ECFFDFB2
:1048300024ECFFDF21ECFFDF6079FEFF1EECFFDFE1
:10484000C9EBFFDF002800DAAAE0431E009328220C
:104850002100300022AB4AF0FBFF843000D099E009
:10486000282221003000009722AB4AF0F1FF0028F7
:1048700020D13A0022A912A881F036FF002800D0EA
:1048800082E030004AF0D6FF002877DB30004AF0A3
:1048900097FF0300AD3313D00300E83310D04AF084
:1048A0009DFF864200D17FE7A64BA7489C46684300
:1048B000604463E6A54BA4489C46684360445DE6BB
:1048C000A34BA1489C466843604457E6A14B9E48D1
:1048D0009C467043604451E69F4B9B489C46704306
:1048E00060444BE69D4B98489C467043604445E6C7
:1048F0009B484AF073FF041E29D109204AF060FF4B
:104900000300E83314D043425B058F485B0D5843E6
:10491000944B9C46604431E6934B8B489C466843DD
:1049200060442BE6914B88489C466843604425E6EA
:1049300002204AF045FF0300AD330AD043425B0535
:1049400081485B0D58438A4B9C46604416E6894873
:1049500014E620004AF034FF0300AD3338D0434260
:104960005B0579485B0D5843834B9C46604405E6E4
:10497000824B75489C4668436044FFE5804B724813
:104980009C4668436044F9E57E4B6F489C4668430B
:104990006044F3E57C4B6C489C4668436044EDE51D
:1049A0007A4B69489C4668436044E7E5784B664823
:1049B0009C4668436044E1E5764B63489C46684307
:1049C0006044DBE5744B60489C4668436044D5E531
:1049D00020004AF003FF00280ED101304AF02AFFE0
:1049E0000300E8330AD043425B0557485B0D584348
:1049F0006A4B9C466044C1E56948BFE501204AF026
:104A00000BFF0300E83308D043425B054E485B0DC3
:104A10005843644B9C466044B0E502204AF00AFFCC
:104A20000300E83308D043425B0547485B0D584319
:104A30005D4B9C466044A1E502204AF0EDFE030078
:104A4000E83308D043425B053F485B0D5843574B62
:104A50009C46604492E509204AF0ECFE0300E833EE
:104A600008D043425B0538485B0D5843504B9C4689
:104A7000604483E50E204AF0DDFE0300E83308D0F1
:104A800043425B0530485B0D58434A4B9C466044AB
:104A900074E50E204AF0C0FE0300E83308D043421C
:104AA0005B0529485B0D5843434B9C46604465E5D4
:104AB00000204AF0BFFE0300AD3308D043425B053F
:104AC00021485B0D58433D4B9C46604456E5002011
:104AD0004AF0A2FE0300AD3308D043425B051A48FA
:104AE0005B0D5843364B9C46604447E504202EF04E
:104AF000DFF800281DD006202EF0DAF800281ED09E
:104B000007202EF0D5F8002817D008202EF0D0F876
:104B1000002810D0012040422EF0CAF8002800D111
:104B20002CE54342084A5B055B0D5343254A981820
:104B300024E5254822E5254820E525481EE52548A9
:104B40001CE5C046DAEBFF9F6079FEFFEEEBFF9FAE
:104B5000DFEBFF9F12ECFF9F15ECFF9F18ECFF9F10
:104B600086020000B8EBFFDFE8EBFF9FD3EBFF9F6F
:104B7000B4EBFFDFC1EBFFFFB1EBFFDF04ECFF9F06
:104B8000E6EBFF9FECEBFF9FF2EBFF9FF7EBFF9F46
:104B9000FEEBFF9F01ECFF9FF9EBFF9FA4EBFFDF14
:104BA000ADEBFFFF9CEBFFDF93EBFFDF8BEBFFDF5A
:104BB00083EBFFDF7AEBFFDF72EBFFDF6DEBFFDFF5
:104BC0006AEBFFDF42EBFFDF5AEBFFDF46EBFFDF75
:104BD0004BEBFFDF50EBFFDFF0B55C4C5C4AA544CC
:104BE0006E46130031004C3331CB31C1594B002795
:104BF000089308230A93584B58320C93574B099249
:104C00000D931C230E93564B08AD1093554B1193E7
:104C10003223129302220021524214A84BF006FDC7
:104C2000002840D13468200082F052FA22000300AC
:104C3000042114A84BF03EFD002845D1AA6829683C
:104C400014A84BF075FB00284FD103A914A84BF012
:104C5000C7FB00285AD11422696803A881F044FDDB
:104C6000041E64D114A801374BF0F2FC1035043651
:104C7000032FCFD104204BF0F5FA14280ED0404278
:104C80004005420D030C9B1A9B009B189A009B1831
:104C90009A009B185B01344A5B429C182000D52384
:104CA0009B009D44F0BD40424005420D030C9B1A01
:104CB0009B009B189A009B189C001C192B4B6401AD
:104CC0009C4664426444E9E740424005420D030CBF
:104CD0009B1A9B009B189A009B189C001C19244B44
:104CE00064019C4664426444D8E740424005420D5A
:104CF000030C9B1A9B009B189A009B189C001C1984
:104D00001C4B64019C4664426444C7E74042400532
:104D1000420D030C9B1A9B009B189A009B189C0049
:104D20001C19154B64019C4664426444B6E77B0140
:104D3000DB1B9B00DB199A009B189C001C190F4B76
:104D400064019C4664426444A8E7C046ACFCFFFF93
:104D500028E408102C880810388808105888081093
:104D600070880810A48808109CEAFFDFB2EAFFDF11
:104D7000ADEAFFDFA9EAFFDFA6EAFFDFA3EAFF9FB4
:104D8000F0B5714C714BA5446E46320013CB13C283
:104D90001B68002713606E4B08220C936D4B0E921C
:104DA0000D93243311931C2312936B4B6B4A149372
:104DB0006B4B10921593322316930023694A189374
:104DC00019921A930CAC0222002152421CA84BF0FB
:104DD0002DFC002800D070E03568280082F078F9BA
:104DE0002A00030006211CA84BF064FC002800D018
:104DF00071E02168002906D0A2681CA84BF098FA3F
:104E0000002800D091E004A91CA84BF0E9FA002882
:104E100000D06EE02022616804A881F065FC051EC8
:104E200000D074E01CA801374BF012FC103404369B
:104E3000042FC8D106204BF015FA202813D0404289
:104E40004005420D030C9B1A9B009B189A009B186F
:104E50009A009B185B01444A5B429D182800DD23A1
:104E60009B009D44F0BD15204BF0FCF90300AD33D1
:104E70000FD040424005420D030C9B1A9B009B182B
:104E80009A009B189A009B185B01384A5B429D1858
:104E9000E4E74BF0A1FE4028E0D040424005420D3F
:104EA000030C9B1A9B009B189A009B189A009B1856
:104EB0005B012F4A5B429D18D0E77B01DB1B9B0007
:104EC000DB199A009B189D005D192A4B6D019C46C9
:104ED0006D426544C2E77B01DB1B9B00DB199A0036
:104EE0009B189D005D19244B6D019C466D426544E5
:104EF000B4E77B01DB1B9B00DB199A009B189D002C
:104F00005D191E4B6D019C466D426544A6E77B0111
:104F1000DB1B9B00DB199A009B189D005D19184B49
:104F20006D019C466D42654498E77B01DB1B9B004D
:104F3000DB199A009B189D005D19124B6D019C4670
:104F40006D4265448AE7C0468CFCFFFF98E4081078
:104F50002C880810A8E408107088081038880810F9
:104F6000BC880810E0880810D7E9FFDFD5E9FFDF2B
:104F7000D2E9FFDFEFE9FF9FEAE9FF9FE1E9FF9F49
:104F8000DEE9FF9FE5E9FF9FF0B55F4C5F4BA5446D
:104F90006E46320013CB13C21B68002713605C4BB4
:104FA00010AD10935B4B1193082312935A4B14933B
:104FB0005A4B15931C231693594B1893594B19931D
:104FC00032231A93584B1C93584B1D930D231E9359
:104FD00002220021524220A84BF028FB002840D199
:104FE0003468200082F074F822000300072120A812
:104FF0004BF060FB002845D1AA68296820A84BF037
:1050000097F900284FD104A920A84BF0E9F900280E
:105010005AD13022696804A881F066FB041E64D16D
:1050200020A801374BF014FB10350436042FCFD1E4
:1050300007204BF017F930280ED040424005420DB2
:10504000030C9B1A9B009B189A009B189A009B18B4
:105050005B01374A5B429C182000E1239B009D4482
:10506000F0BD40424005420D030C9B1A9B009B186B
:105070009A009B189C001C192E4B64019C466442AC
:105080006444E9E740424005420D030C9B1A9B0033
:105090009B189A009B189C001C19274B64019C4686
:1050A00064426444D8E740424005420D030C9B1A19
:1050B0009B009B189A009B189C001C191F4B6401B5
:1050C0009C4664426444C7E740424005420D030CDD
:1050D0009B1A9B009B189A009B189C001C19184B4C
:1050E00064019C4664426444B6E77B01DB1B9B0081
:1050F000DB199A009B189C001C19124B64019C46FA
:1051000064426444A8E7C0467CFCFFFFF0E408105A
:105110002C8808100489081038880810388908106D
:10512000708808106C890810A0890810B0890810D0
:1051300068E9FFDF7EE9FFDF79E9FFDF75E9FFDF7F
:1051400072E9FFDF6FE9FF9FF0B55F4C5F4BA5444D
:105150006E46320013CB13C21B68002713605C4BF2
:1051600014AD14935B4B1593082316935A4B189365
:105170005A4B19931C231A93594B1C93594B1D934B
:1051800032231E93584B2093584B21930D23229387
:1051900002220021524224A84BF048FA002840D1B4
:1051A0003468200081F094FF22000300082124A825
:1051B0004BF080FA002845D1AA68296824A84BF052
:1051C000B7F800284FD104A924A84BF009F900280A
:1051D0005AD14022696804A881F086FA041E64D17D
:1051E00024A801374BF034FA10350436042FCFD100
:1051F00008204BF037F840280ED040424005420DC1
:10520000030C9B1A9B009B189A009B189A009B18F2
:105210005B01374A5B429C182000E5239B009D44BC
:10522000F0BD40424005420D030C9B1A9B009B18A9
:105230009A009B189C001C192E4B64019C466442EA
:105240006444E9E740424005420D030C9B1A9B0071
:105250009B189A009B189C001C19274B64019C46C4
:1052600064426444D8E740424005420D030C9B1A57
:105270009B009B189A009B189C001C191F4B6401F3
:105280009C4664426444C7E740424005420D030C1B
:105290009B1A9B009B189A009B189C001C19184B8A
:1052A00064019C4664426444B6E77B01DB1B9B00BF
:1052B000DB199A009B189C001C19124B64019C4638
:1052C00064426444A8E7C0466CFCFFFFF0E40810A9
:1052D0002C880810E489081038880810288A0810DB
:1052E000708808106C8A0810A0890810B08A08100D
:1052F000F9E8FFDF0FE9FFDF0AE9FFDF06E9FFDF7B
:1053000003E9FFDF00E9FF9FF0B557464E46DE4652
:105310004546E0B5724C734BA5441A0004AC21001D
:10532000583261CA61C1126808AD0A601A002900CA
:105330006832C1CAC1C1126878330A600CAA43CB73
:1053400043C269491B68AA4613600B0010AA0833C0
:10535000C1CBC1C21B681831136024A840220DF0D4
:10536000CFFD24AB9B46002301935B46A34614AFBD
:105370000393039B10AC98460CAE022200215242CC
:1053800034A84BF053F9002852D1336899465B4654
:105390001D68280081F09CFE2A000300494634A8BD
:1053A0004BF088F9002854D153461D68280081F03D
:1053B0008FFE2900020034A84AF0BAFF002859D114
:1053C000390034A84BF00CF8002864D14246236819
:1053D000116838001A00029381F086F9051E6BD11E
:1053E00034A84BF035F90199002905D148464AF017
:1053F00039FF029B834261D104239C460434E0447C
:105400000436BC42B9D1019B039A01331032019397
:10541000E244E3440392042BABD12B001800F523A4
:105420009B009D44F0BCBB46B246A946A046F0BDD9
:1054300040424005420D030C9B1A9B009B189A00AA
:105440009B189A009B18294A5B0194465B4263446F
:10545000E4E740424005420D030C9B1A9B009B1859
:105460009A009B189A009B18214A5B0194465B4264
:105470006344D3E740424005420D030C9B1A9B0056
:105480009B189A009B189A009B181A4A5B01944635
:105490005B426344C2E740424005420D030C9B1A45
:1054A0009B009B189A009B189A009B18124A5B015C
:1054B00094465B426344B1E7104BAFE7404240057E
:1054C000420D030C9B1A9B009B189A009B189A0094
:1054D0009B180B4A5B0194465B4263449EE7C046BF
:1054E0002CFCFFFFA8E4081028E5081065E8FFDFA2
:1054F00060E8FFDF5CE8FFDF59E8FFDF57E8FFFF08
:105500004DE8FFDFF0B5454657464E46DE46E0B56E
:10551000844CA54408AB9A46834B51461A00583236
:1055200031CA31C112680CAF0A601A003900683202
:1055300031CA31C1126810AE0A603200783313CB21
:1055400013C268461B68B94613600200774B3700E8
:1055500012CB12C2764B110030CB30C21400754B07
:10556000944624CB24C423001D00A046724C0CCCCE
:105570000CC5634616934346179314AB9846002315
:1055800020251E00149015914B461B682A009B464F
:1055900019006AA80DF0B4FC202200214AA80DF0E1
:1055A000A9FC082239684BA80DF0AAFC2A0059462C
:1055B00028A833F007FB2A000400594639A833F025
:1055C00001FB20433BD100224AA928A833F0DEFA90
:1055D000002204004AA939A833F0D8FA20432ED17A
:1055E000082251466AA80DF08BFC08236AAA4AA932
:1055F00028A833F045FB082304004AAA6AA939A861
:1056000033F03EFB20431AD14346082218684AA9CA
:1056100081F06AF8002800D075E053466A9A1B684A
:105620009A4215D0B34673019B1B9B005B449A00C2
:105630009B189C001C196401404B6442E0188B23AA
:105640009B009D44F0BCBB46B246A946A046F0BDB7
:1056500053466B9A5B689A42E4D10136042E0CD013
:10566000F51E6B1E9D4110236D421D400C3B9C4658
:105670001035E044E144043786E7802200216AA81F
:105680000DF038FC4022012118A80DF033FC002158
:1056900080224AA80DF02EFC294E2A4B4BAA03CBA0
:1056A00003C22A00310028A833F08CFA2A00040033
:1056B000310039A833F086FA2043C0D100224AA92C
:1056C00028A833F063FA012204004AA939A833F06C
:1056D0005DFA2043B3D180236AAA4AA928A833F0EF
:1056E000CFFA402304005AAA18A939A833F0C8FAFF
:1056F0002043A4D1402218A97AA880F0F5FF002801
:105700009DD011489BE7B34673019B1B9B005B44F4
:105710009A009B189C001C1964010C4B6442E01811
:105720008DE7C046D4FDFFFF28E50810F48A081075
:10573000008B08100C8B0810188B0810A3E5FF9F36
:105740003CC10810ACC1081089E5FFFFA6E5FF9F2A
:10575000F0B54746CE4680B5B9B005AB984642464F
:10576000864B0CAE13CB13C2854B31001A000832A6
:1057700031CA31C131CA31C11A002032894631CA19
:1057800031C131CA31C11A0038320D0091CA91C1FC
:1057900091CA91C150330F0015CB15C115CB15C15E
:1057A00000242022296824A84BF0F0FF002800D014
:1057B0009AE04A46A300D258316824A84CF06EF90A
:1057C000002800D09EE008A924A84CF06DF800281D
:1057D00000D0A5E01022396808A880F085FF0028D5
:1057E00000D0ABE00134043504370436062CD8D1A0
:1057F0001022002108A80DF07DFB2022614924A879
:105800004BF0C4FF002814D040424005420D030C69
:105810009B1A9B009B189A009B18980018185A4BCB
:1058200040019C464042604439B0C0BCB946B046D5
:10583000F0BD1023029308AB01937223534C0093E5
:105840000C222300414624A84CF0D2FC00283AD177
:105850004F4B089A9A4201D04E48E5E74E4B099AC1
:105860009A42F9D14D4B0A9A9A42F5D14C4B0B9D75
:105870009D42F1D11022002108A80DF03BFB4346C8
:1058800042461B784146013313701023029308AB44
:10589000019372230C22009324A823004CF0A8FC4F
:1058A000002859D13A4B089A9A42BDD13A4B099AED
:1058B0009A42B9D1394B0A9A9A42B5D10B9BAB4265
:1058C000B2D13848B0E740424005420D030C9B1A64
:1058D0009B009B189A009B1898001818324B4001A7
:1058E0009C46404260449FE763011B1B9B001B19C1
:1058F0009A009B18980018182C4B40019C46404277
:10590000604491E763011B1B9B001B199A009B18C5
:1059100098001818264B40019C464042604483E79B
:1059200063011B1B9B001B199A009B1898001818F9
:10593000204B40019C464042604475E763011B1BBD
:105940009B001B199A009B18980018181A4B4001CD
:105950009C464042604467E740424005420D030CCC
:105960009B1A9B009B189A009B1898001818134BC1
:1059700040019C464042604456E7C046248B0810D4
:10598000A8E508101CC1081061E4FFDFA8C00810DA
:105990001AE10B5959E4FFFF4F09E26A7E902ECBC2
:1059A000D06006914EE4FFFF5CE4FFDF73E4FF9FED
:1059B0006FE4FF9F6BE4FF9F68E4FF9F51E4FFDF0C
:1059C000F0B5DE464E4657464546E0B5C44C00218C
:1059D000A5440A24FF34220036A80DF08BFA1022C9
:1059E00000210AA80DF086FA2200002179A80DF006
:1059F00081FA0AAB039336AB02937223B94DBA4FC7
:105A0000BA4E019399462A00663B39000020009661
:105A100033F0CAFA0300AD3319D040424005430DBC
:105A2000040CE41AA400E418A300E418A300E4188A
:105A3000AF4B64019C46644264442000BD239B003C
:105A40009D44F0BCBB46B246A946A046F0BDA94B5A
:105A50002A0098460AAB039336AB02934B460021CB
:105A6000019340460C23009633F09EFA0300AD33B9
:105A700010D040424005430D040CE41AA400E41881
:105A8000A300E418A300E4189B4B64019C46644205
:105A90006444D2E70AAB039336AB02934B460193BF
:105AA00000232A0000939B4639000C33404633F014
:105AB0007BFA0300AD3310D040424005420D030C89
:105AC0009B1A9B009B189A009B189C001C198B4BDF
:105AD00064019C4664426444AFE70AAB03935B46AF
